:100000000C94040A0C942C0A0C942C0A0C942C0AC0
:100010000C942C0A0C942C0A0C942C0A0C942C0A88
:100020000C942C0A0C942C0A0C942C0A0C942F0C73
:100030000C942C0A0C942C0A0C942C0A0C942C0A68
:100040000C94DA0B0C942C0A0C942C0A0C942C0AA9
:100050000C942C0A0C942C0A0C942C0A0C942C0A48
:100060000C942C0A0C942C0AA01DA31DA61DA91DDE
:10007000AC1DAF1DB21DB51DB81DBB1DBE1DC11DE4
:10008000C41DC71DCA1DCD1DD01DD31DD61DD91D14
:10009000DC1DDF1DE21DE51DE81DEB1DEE1DF11D44
:1000A000F41DF71DFA1DFD1D001E031E061E091E70
:1000B0000C1E0F1E121E151E181E1B1E1E1E211E9C
:1000C000241E271E2A1E2D1E301E331E361E391ECC
:1000D0003C1E3F1E421E451E481E4B1E4E1E511EFC
:1000E000541E571E5A1E5D1E601E631E661E691E2C
:1000F0006C1E6F1E721E751E8A1E8D1E901E931E14
:10010000961E991E9C1E9F1EA21EA51EA81EAB1EFB
:10011000AE1EB11EB41EB71EBA1EBD1EC01EC31E2B
:10012000C61EC91ECC1ECF1ED21ED51ED81EDB1E5B
:10013000DE1EE11EE41EE71EEA1EED1EF01EF31E8B
:10014000F61EF91EFC1EFF1E021F051F081F0B1FB7
:100150000E1F111F141F171F1A1F1D1F201F231FE3
:10016000261F291F2C1F2F1F321F351F381F3B1F13
:100170003E1F411F441F471F4A1F4D1F501F531F43
:10018000561F591F5C1F5F1F741F771F7A1F7D1F2B
:10019000801F831F861F891F8C1F8F1F921F951F13
:1001A000981F9B1F9E1FA11FA41FA71FAA1FAD1F43
:1001B000B01FB31FB61FB91FBC1FBF1FC21FC51F73
:1001C000C81FCB1FCE1FD11FD41FD71FDA1FDD1FA3
:1001D000E01FE31FE61FE91FEC1FEF1FF21FF51FD3
:1001E000F81FFB1FFE1F0120042007200A200D20FE
:1001F00010201320162019201C201F20222025202B
:1002000028202B202E203120342037203A203D205A
:1002100040204320462049205E2061206420672042
:100220006A206D2070207320762079207C207F202A
:100230008220852088208B208E209120942097205A
:100240009A209D20A020A320A620A920AC20AF208A
:10025000B220B520B820BB20BE20C120C420C720BA
:10026000CA20CD20D020D320D620D920DC20DF20EA
:10027000E220E520E820EB20EE20F120F420F7201A
:10028000FA20FD2000210321062109210C210F2144
:100290001221152118211B211E2121212421272172
:1002A0002A212D213021332148214B214E2151215A
:1002B000542157215A215D21602163216621692142
:1002C0006C216F217221752178217B217E21812172
:1002D000842187218A218D219021932196219921A2
:1002E0009C219F21A221A521A821AB21AE21B121D2
:1002F000B421B721BA21BD21C021C321C621C92102
:10030000CC21CF21D221D521D821DB21DE21E12131
:10031000E421E721EA21ED21F021F321F621F92161
:10032000FC21FF210222052208220B220E2211228B
:10033000142217221A221D221010000001800180B1
:100340000300030006000C000C001F00198030C3DE
:1003500030C360C66066C06CC0381810000700600B
:100360000D80600D8067FF00C06000C06000C7FEA8
:1003700000C06000C06000C06000C06000C76000D6
:10038000C4F000C47C0066660063C0001010180052
:100390001818186C18300C000C780DC00F001C00D9
:1003A00030006000C000C000C00070001FF01810D6
:1003B00000020060090060048067FE00C06100C0A8
:1003C0006000C7FE00C06000C06000C06000C06088
:1003D00000C76000C4F000C47C0066660063C00013
:1003E000101000003FE000CC01B607180C00187E8A
:1003F0003FC0E30006000C000C000C000600038068
:1004000000F01010000C00363FD800000000000083
:100410000000000000000000C000C000C00060003C
:100420003FF8000010100600060007F0FF000C0067
:1004300018001F0031BC61E0C6C00CC018C03000FD
:10044000300018000FF8101000003FE000C00180DD
:10045000030006000C001FE038306018C00C000CD0
:100460000018001800700FC01010030003000300F4
:1004700003F80300030003000300030003007F00F0
:10048000C3C0C37063183E000000101018001800AD
:10049000D8003F80180018001800D8007F98300C52
:1004A000300C300C300C301818380FE010100000F1
:1004B000600067FE6030C030C030C7FFC030C03061
:1004C000C030C030C3B0C678C63E633361E01010A0
:1004D000000003E00DB8198C318661866183C30387
:1004E000C303C303C606C6066C0C383800E0000020
:1004F00010100C000C000C000C000600063C06E07E
:1005000007800E00180030006000600060003800B6
:100510000FF8101000001FF0006000C003800600FC
:100520000C3F1FE0F18003000600060006000300F8
:1005300001C00078101000003FE000000000000043
:100540000000000000000000C000C000C00060000B
:100550003FF800000000101006000600060007E645
:100560007F030601060007F80F0C36066603C60374
:10057000C603C606660C3C7810100000001C00364E
:1005800007360D9C18C030606030C018800C000623
:10059000000300010000000000001010000000082F
:1005A000002407120D8818C030606030C018800C1D
:1005B0000006000300010000000000001010000011
:1005C00007FEFCE00180030C063606180C000C0048
:1005D0000C0006000600030001C0007800001010A7
:1005E0000006001B306C3060306033FEFE6030600F
:1005F0003060306033C030003000300018000FF839
:10060000101000060033603C60366030C7FFC03019
:10061000C030C030C030C030C030C03060606060BA
:1006200061C0101000001FE000C00180030007E05F
:100630001C30301867180DB007E00E00183C2C660F
:1006400066C3C38F10101800180018001CF0FB9828
:100650001E0C1C0C380C380C5818D818D818981BBD
:10066000181B180E180010100180618061806180D5
:1006700067F07D9C31867306DB03DE038E038C03FB
:100680009606F006001C00F01010000000000000AC
:10069000038006C00C6018303018600CC0060003E0
:1006A00000010000000000000000101018001800F9
:1006B00018001E7CFDC61B031E031C031803380311
:1006C000380358FBD987198618CB187B1010000007
:1006D00003FFFE7000C00180030003000600060057
:1006E000060003000300018000E0003C0000101041
:1006F00000180C180C180C180CFFFF980C180C188C
:100700000C180CF00C000C000C00060003FE00009E
:1007100010100018601860186018C7FFC018C018C3
:10072000C018C018C018C018C018603060306060B1
:1007300001C010100E0003C00000000003F03E6076
:1007400000C00180030007800CC018C030C060C02A
:10075000C0C0007F10103C0C07C6000300180FCC6F
:10076000F86600300030003000300030006000607B
:1007700000C003801E00101000000F0001DC0036D6
:100780000036061C060036003318630CC18680C391
:1007900000C300C039800F00101000000F0001C41A
:1007A000000600330618060C16003318630CC186C9
:1007B00080C300C300C039800F001010030C033643
:1007C0000318FFFC030003001B00370063006300F5
:1007D00037001B00060006000C003800101000C097
:1007E00001800318060C0C6018307000C000C000B7
:1007F000700018000E000300018000C0006010109F
:1008000000003FF0006000C00180030006001FE010
:1008100038306018C00C000C0F0C199818B00FE09D
:1008200010100180618063F06EDC98C6B0C6B0C362
:10083000E0C3E0C3ECC6CCC6C6DC63F06180030055
:100840000E0010100C000C000C00FFC60C030C0175
:100850003C006C00CC00CC00D806780318031803C9
:100860000C0607FC1010078000E0000000000300E9
:1008700003000300318C318660C3C0618061006079
:100880001CC007800000101001800180C180C3F0EF
:10089000CD9C598673066303F303B60396039C034A
:1008A000CC7BF6CEF0C6007B10100000000001F8F3
:1008B0000F0EF80600030003000300030003000608
:1008C000000C007807C000000000101000C000C03D
:1008D00000C0FFFF00C000C006C00DC018C018C097
:1008E0000DC006C00180018003000E00101000C082
:1008F0000180030006000C0018007000C000C0005A
:10090000700018000E000300018000C0006010108D
:100910003C0007C0000000000FC0F860003000304D
:100920000030003000300060006000C003801E0016
:100930001010000E001B0F1BF60E0C18181C181CB4
:10094000301E301B6018601860306030306038C076
:100950000F8018130007000001800F0C00F607003D
:100960000C1900181C00181C00301E00301B006001
:10097000180060180060300060300030600038C03F
:10098000000F80000000000000000000001010C0F8
:1009900000C060C1B0C0C0C000C000C000C000C086
:1009A00000C018C018C030C06061C03F0000001017
:1009B00010030C03360198FFF0018000BCFFE0003B
:1009C0006000603FB06078C018C000600038000F61
:1009D000F01010000003E03EC000C0018001800361
:1009E000F80D8C1B0633036603C603CCF3D996714E
:1009F0008C00F8101000C0C0C0C0C0C0C0C0C0C0D3
:100A0000C0C0C0D8C0D8C0F0C060C00180018003A1
:100A10000006001C00101000000F8079800180018A
:100A200080030C030C1FEC763CC60F8C0D8C0C98CD
:100A300018B018E03000E0101000000F18F6180C85
:100A400018181C181C301E301B60186018603060AD
:100A500030306038C00F800000101060006000610E
:100A6000FEC000C000C000C000C000C000C180C304
:100A700000C300618060FF600000001010060006E7
:100A800000067CFFC006000C000E001FF01E1C3884
:100A90000C300600060006000C003807E0101000BD
:100AA00000C000C000C000C000C000C000C000C046
:100AB00000C000C018C018C030C06061C03F001046
:100AC00010030003000178FFC0018000BCFFE000BC
:100AD0006000603FB06078C018C000600038000F50
:100AE000F01010C000C000C000C018C018C00CC07A
:100AF0000CC006C006C006C60666006C00380000C2
:100B00000000001010000E607B607B606EC060CF44
:100B1000FEC060C060C060C060C060C760C4F0C498
:100B200078666C63C0101000066033603C6036C0AD
:100B300030CFFEC030C030C030C030C030C7B0C4CD
:100B400078C43C663663E01010180C18361F98FC09
:100B5000003000300031FC600060006000C000C365
:100B600000C300830081FE00001010030C03360157
:100B700098FFF0018000C000C000601FB070786076
:100B800018C000C000600038000FE010100C060C08
:100B9000030C0C0C060F98FCCC1866186318633015
:100BA0006130613060606060C0CCC0C78010100CE4
:100BB000000C000C000F00FE780DCE0F030E031C7E
:100BC000011C012C016C03CC030C060C1C0CF01056
:100BD000103C000780000000006000600067C0DC7F
:100BE00070F030E018C01800180030007001C01F0D
:100BF00000101000C030C030C030F81BCE3E06D808
:100C0000030C030C060C0E06780600060003000316
:100C10000003001010060006000600FFF80600069C
:100C2000000600FFF0060006000600F6008F0087B1
:100C3000C0C6707C0010100000601860186018CFEB
:100C4000FFC018C018C018C018C018C018C3D8C634
:100C50003CC61E631B61F010100C000C000F80FCE2
:100C60003C180718003000301860186018C018C30E
:100C7000F8061C061E031B01F0101000000C000CEF
:100C8000000FC0FE001800180018FE3000300030C1
:100C900000600061806180C180C0FF10100300030C
:100CA000000178FFC0018000C000C000601FB0706C
:100CB000786018C000C000600038000FE010100C11
:100CC000000C000C000C180F8CFCC618631863187D
:100CD00061306130603060606060C0CCC0C780103F
:100CE000100600060006F87F800600066007F81E62
:100CF0006E366666C366C3C783C7036E063E1C00B6
:100D0000700101FF030101F703050D010D050089C5
:100D1000300802380249786814000005003801687C
:100D20000100001753440016137800161314001521
:100D300010200015201000540A03E181867F3E1820
:100D40006D830F0F0E0183866033186DC3198F18E2
:100D500003C38E6033186DE330CF1803C39E603633
:100D600030CDE360CF3006C79E7E3E30CDB360CF3E
:100D7000300CC6F6603330D9B660CF33CFCCF660D6
:100D800061B0DB1E60CF30D86CE6C061B0DB1E61A5
:100D90008F19986CC6C063B19B0E330F0FB078C625
:100DA000FF7E1F1B061E0F05077F4141417F3E5BF3
:100DB0004F5B3E3E6B4F6B3E183C783C18183C7EB8
:100DC0003C181C577D571C1C5E7F5E1C007E4343F5
:100DD0007E007E73737E007E7F7F7E7F4141417FF8
:100DE00030483A060E06297929067F4141417F6045
:100DF000703F02042A1C361C2A7F3E1C0800000893
:100E00001C3E7F14227F22143C3C3C7EFF18423C57
:100E1000817E3E6375633E3E616B633E3E636B6BFA
:100E20003E04027F020410207F201008082A1C08BC
:100E3000081C2A0808143E55412263756975631021
:100E4000181C1810040C1C0C04000000000000000A
:100E50005F00000007000700147F147F14042A7F3E
:100E60002A102313086462364956205000080703ED
:100E700000001C2241000041221C002A1C3E1C2AAA
:100E800008083E080800E06000000808080808009C
:100E90006060000060100804033E5149453E004276
:100EA0007F400062514949462141494D331814128F
:100EB0007F1027454545393C4A49493041211109B0
:100EC000073649494936064949291E0000240000D1
:100ED000008064000008142241001414141414004B
:100EE0004122140802015909063E415D594E7C1207
:100EF00011127C7F494949363E414141227F41419F
:100F0000221C7F494949417F090909013E4141515C
:100F1000327F0808087F00417F41002041413F01A6
:100F20007F081422417F404040407F020C027F7FB7
:100F30000204087F3E4141413E7F090909063E41C6
:100F40006141BE7F09192946264949493201017F7D
:100F500001013F4040403F1F2040201F3F4038409C
:100F60003F63140814630304780403615149454343
:100F7000007F41410003040810600041417F0004EC
:100F80000201020480808080800003070800205452
:100F90005478407F284444383844444428384444F2
:100FA000287F3854545418087E09090218A4A49CB8
:100FB000787F0804047800447D4000006080847DD0
:100FC0007F1010284400417F40007C047804787C26
:100FD000080404783844444438FC1824241818249D
:100FE0002418FC7C080404080854545420043F448A
:100FF00044203C4040207C1C2040201C3C402040A1
:101000003C44281028444C9090907C4464544C44B8
:10101000000836410000007F00000041360800183B
:101020000408100C7F4141417F482400000000006B
:1010300000000000FFFFFFFFFFFFFFFE0080000039
:10104000000000000200866DE3C78F1CCF020086FF
:1010500061B66C19BED98200866DB66C19B6D9829C
:101060000087EDE7EDDFB6DF8200866DB66CD9B69E
:10107000D98200866DB667D9B399820080000000DE
:101080000000000200FFFFFFFFFFFFFFFE00000067
:101090000000000000000000000000000000000050
:1010A00000000F000E030600000E0007800E300E39
:1010B00000007E3001800C0C0E00000C3000001C83
:1010C000707F1E000C3010007F980C06001838301E
:1010D000007F9C080000303C3000118E18700030FA
:1010E0003E33F0318E30700030323C1831867070F3
:1010F000003030380C718073F0003070300C61803B
:10110000677800386000386F80067E001FE007F0C7
:10111000CF800660000FC007C0000007E00000009D
:1011200000000000000000000001E00000000000DE
:101130000000061800000000007676C4C800000019
:1011400000005564892400001FFF80774249E409AC
:1011500012F334804576C52815555AD6800000060E
:101160001814E2593680000001E000001FFF8000E3
:1011700000000000240027002A00000000002500D5
:1011800028002B00450068010000F6E8DBCFC3B85B
:10119000AEA49B928A827B746E68625C57524E4901
:1011A00045413E3A3734312E2C29272523210A0A7E
:1011B000153A49676E6F7265006D560A0A504C45C4
:1011C000415345205455524E204F464620004C4F27
:1011D00057204241545445525921200003053F21D4
:1011E0003F1208120A100A0E1C0E0C1E0C141A14C0
:1011F000161F161E131E1E1B1E1E1F1E3F213F3ACA
:101200002F3A173D173F213F181F02040A041F0EF3
:1012100004040E1F0A1F0A0E0E1F04110E2E252E87
:101220002F2A2E262929021F02081F08150E040442
:101230000E150E15151B151B040604040C040000E6
:10124000000017000300031F0A1F16371A190413A2
:101250000A153A000300000E11110E000A040A04D8
:101260000E040030000404040010001804031F11D1
:101270001F121F101D151711151F07041F17151D0D
:101280001F151D01011F1F151F17151F000A000044
:101290003200040A110A0A0A110A040115020E1189
:1012A000171E051E1F150A0E110A1F110E1F1511FC
:1012B0001F05010E111D1F041F111F1108100F1F04
:1012C000041B1F10101F061F1E040F0E110E1F09F6
:1012D000060E112E1F051A121509011F011F101FDE
:1012E0000F180F1F0C1F1B041B031C0319151300E1
:1012F0001F11030418111F00020102202020000109
:10130000020C121E1F120C0C12120C121F0C1A14BB
:10131000041E05242A1E1F021C141D1020201D1F40
:101320000814111F101E041E1E021C0C120C3E0A73
:10133000040C123E1E040214160A020F120E101E96
:101340000E100E1E081E120C1226281E322A26040B
:101350001E21001F00211E040102013F213F172B07
:10136000152010204C4F4144455200172B162013D6
:1013700014000A4E6F2053442063617264206F7220
:101380000A6E6F204C4F414445522E4845580A0A78
:10139000153A45786974001D20466C617368696E62
:1013A000670A20206C6F616465722E2E2E0A0A4433
:1013B0004F4E2754205455524E204F464621000090
:1013C000000000230026002900040404040404048F
:1013D00004020202020202030303030303010204E4
:1013E00008102040800102040810200102040810A7
:1013F00020000000080002010000030407000000B4
:101400000000000000004E2311241FBECFEFD8E0E3
:10141000DEBFCDBF12E0A0E0B1E0EEE5FAE402C02D
:1014200005900D92A437B107D9F725E0A4E7B2E003
:1014300001C01D92A531B207E1F71AE0C4E0DAE07D
:1014400004C02197FE010E948923C330D107C9F748
:101450000E941A1C0C942D250C940000CF92DF9250
:10146000EF92FF920F931F93CF93DF936C017A015A
:101470008B01C0E0D0E0CE15DF0589F0D8016D9179
:101480008D01D601ED91FC910190F081E02DC60116
:101490000995892B11F47E0102C02196ECCFC7017A
:1014A000DF91CF911F910F91FF90EF90DF90CF9040
:1014B00008950E94CD246115710579F0FB0101901A
:1014C0000020E9F73197AF01461B570BDC01ED9186
:1014D000FC910280F381E02D099480E090E0089572
:1014E000833081F028F4813099F08230A1F00895A2
:1014F0008730A9F08830B9F08430D1F48091800031
:101500008F7D03C0809180008F7780938000089545
:1015100084B58F7702C084B58F7D84BD0895809196
:10152000B0008F7703C08091B0008F7D8093B000B2
:1015300008951F93CF93DF93282F30E0F901EF50E8
:10154000FC4E8491F901E352FC4ED491F901E7532A
:10155000FC4EC491CC23C9F0162F81110E94700A51
:10156000EC2FF0E0EE0FFF1FE658FE4EA591B49170
:101570008FB7F894111105C09C91ED2FE095E923E8
:1015800002C0EC91ED2BEC938FBFDF91CF911F91B7
:101590000895CF93DF9390E0FC01E352FC4E249139
:1015A000FC01E753FC4E8491882361F190E0880FA1
:1015B000991FFC01E059FE4EC591D491FC01E658FB
:1015C000FE4EA591B491611109C09FB7F89488812E
:1015D000209582238883EC912E230BC0623061F426
:1015E0009FB7F8943881822F809583238883EC916C
:1015F0002E2B2C939FBF06C08FB7F894E8812E2B1B
:1016000028838FBFDF91CF9108951F93CF93DF93EE
:10161000182FEB0161E00E94C90A209711F460E0E5
:1016200004C0CF3FD10539F461E0812FDF91CF9124
:101630001F910C94990AE12FF0E0EF50FC4EE491D9
:10164000E330F9F048F4E130B9F0E230A1F584B5C7
:10165000806284BDC8BD34C0E730E9F0E83019F1DC
:10166000E43049F580918000806280938000D093BF
:101670008B00C0938A0024C084B5806884BDC7BD38
:101680001FC080918000806880938000D093890083
:10169000C093880015C08091B00080688093B0002E
:1016A000C093B3000DC08091B00080628093B00001
:1016B000C093B40005C0C038D1050CF0B5CFAFCF92
:1016C000DF91CF911F9108958E3008F08E50877072
:1016D000806480937C0080917A00806480937A009B
:1016E00080917A0086FDFCCF80917800209179006E
:1016F00090E0922B08953FB7F894809181029091E9
:101700008202A0918302B091840226B5A89B05C0F5
:101710002F3F19F00196A11DB11D3FBFBA2FA92F70
:10172000982F8827820F911DA11DB11DBC01CD01ED
:1017300042E0660F771F881F991F4A95D1F70895D9
:101740008F929F92AF92BF92CF92DF92EF92FF92D1
:101750006B017C010E947B0B4B015C01C114D10425
:10176000E104F104F1F00E947B0BDC01CB0188194C
:101770009909AA09BB09883E9340A105B10570F3F8
:1017800021E0C21AD108E108F10888EE880E83E052
:10179000981EA11CB11CC114D104E104F10419F775
:1017A000DDCFFF90EF90DF90CF90BF90AF909F90F4
:1017B0008F9008951F920F920FB60F9211242F93BE
:1017C0003F938F939F93AF93BF93809187029091A4
:1017D0008802A0918902B0918A023091800223E0B0
:1017E000230F2D3720F40196A11DB11D05C026E859
:1017F000230F0296A11DB11D2093800280938702C2
:1018000090938802A0938902B0938A02809181020A
:1018100090918202A0918302B09184020196A11D51
:10182000B11D8093810290938202A0938302B093B2
:101830008402BF91AF919F918F913F912F910F9013
:101840000FBE0F901F90189580918B04882319F07C
:1018500080918D0401C080E08093B40008951F92B0
:101860000F920FB60F9211242F933F934F935F93D4
:101870006F937F938F939F93AF93BF93EF93FF9358
:1018800060918C04662321F180917F028F5F8093A9
:101890007F02909185028917D8F090918B0481E0A6
:1018A000892780938B0410927F028091860288237F
:1018B00069F08091020193E4899F802D1124895B56
:1018C000809302010E94692390938D040E94240C4E
:1018D000FF91EF91BF91AF919F918F917F916F9108
:1018E0005F914F913F912F910F900FBE0F901F90DE
:1018F00018954F925F926F927F928F929F92AF92C4
:10190000BF92CF92DF92EF92FF920F931F93CF93EC
:10191000DF93F901C49031965491EC0108A164352C
:101920000CF018C10C2C000CDD08A62F062E000CA4
:10193000BB0B7D01EC0CFD1C1E141F040CF00AC136
:1019400040330CF007C1A52E842E042E000C9908FC
:10195000F401E50FF11D57FDFA951E161F060CF058
:10196000F9C02E5F3F4FE6012796D7FD279673E01B
:10197000D595C7957A95E1F747FF0AC0A52EA40E25
:10198000C89DA001C99D500D1124241B350B40E0BA
:10199000EA2D0A2C000CFF0BE40FF11D47FDFA9510
:1019A000F1971CF050E3A52EA41A67FD60E0F70143
:1019B000E535F10514F0E4E5F0E07E2FFC01D48478
:1019C000D426862F062E000C990BFC01EA1BFB0B7C
:1019D000DF017F01F7E0EF22FF24E0E8F0E002C042
:1019E000F595E795EA94E2F71E2FB7FD179653E0B9
:1019F000B595A7955A95E1F72A0F3B1FE42FE7709D
:101A000051E001C0550FEA95EAF745954595459592
:101A1000B4E54B02800D911D112485579D4FC12CBB
:101A20000A2C000CBB08992493942E015524EC2D0C
:101A3000F0E0EA15FB050CF08DC0F901449101308E
:101A4000E1F47C01A12F862E881AB82DBE0DB717A0
:101A500008F077C0B42FBA2321F0E701B881B52B85
:101A6000B883B0E0B595A795109719F431964491D5
:101A7000A0E8DFEFED1AFD0AE8CF01111FC0752EB7
:101A800070947C01A12FF901862E881AB82DBE0D05
:101A9000B71708F056C0B42FBA2321F0E701B88178
:101AA000B721B883B0E0B595A795109719F4319692
:101AB0004491A0E8DFEFED1AFD0AE8CF033031F0E2
:101AC0007C01A12FF901862E881A37C0752E7094DB
:101AD000862E7C01A12FF9018716D8F4B42FBA23E2
:101AE00059F0E701B881682C6D2460FE02C0B52B67
:101AF00002C0B721E701B883B0E0B595A79510976C
:101B000019F431964491A0E88394DFEFED1AFD0AB1
:101B1000E3CFD92416C0B42FBA2321F0E701B8814E
:101B2000B527B883B0E0B595A795109719F431960D
:101B30004491A0E8DFEFED1AFD0AB82DBE0DB717EE
:101B400050F3550F19F48C5A9F4F51E0C394240D54
:101B5000351D6DCFDF91CF911F910F91FF90EF90C9
:101B6000DF90CF90BF90AF909F908F907F906F90BD
:101B70005F904F900895FC01643508F053C04033E6
:101B800008F050C090A1742F759575957595262F06
:101B9000062E000C330B542F57709230A1F4F9012C
:101BA000E557FD4F84E57802E00DF11D1124808199
:101BB00090E0052E02C0959587950A94E2F78095EE
:101BC000982F91700AC0933041F484858170462724
:101BD00040954170841303C014C0911112C084E574
:101BE0007802200D311D1124F901E557FD4F81E0E8
:101BF00090E001C0880F5A95EAF78095908189237B
:101C000010C084E57802200D311D1124F901E5573B
:101C1000FD4F81E090E001C0880F5A95EAF790816E
:101C2000892B80830895DF92EF92FF920F931F9389
:101C3000CF93DF931F92CDB7DEB78C01D62EF42E53
:101C4000E12CE21654F46E2D6D0D4F2DC801298341
:101C50000E94BB0DE3942981F4CF0F90DF91CF91C7
:101C60001F910F91FF90EF90DF9008952F923F9278
:101C70004F925F926F927F928F929F92AF92BF929C
:101C8000CF92DF92EF92FF920F931F93CF93DF9348
:101C9000EC016A3019F42D819885C3C06D3009F4C8
:101CA000C6C038847A84D98448A083E58D150CF4A5
:101CB000A1C08FE287150CF49DC08C8190E0019744
:101CC000389E9001399E300D1124C9018D0D911D52
:101CD000D7FC9A95181619060CF08CC08D81839D3F
:101CE000C0011124870D911D77FC9A9518161906CD
:101CF0000CF080C05D2CCD2CE62EF12CA32C032CF7
:101D0000000CBB08EC2DED190E2E000CFF0B8C8186
:101D100090E0E817F9070CF06CC00197E817F90795
:101D200079F0E89E9001E99E300DF89E300D112467
:101D3000E20FF31F8E8D9F8DE80FF91F149101C0E4
:101D400010E0072D672C262D2719022E000C330BCF
:101D50008D8190E0281739070CF048C010FF1EC095
:101D600081E0381206C0462D6C2DCE010E94BB0DBD
:101D700039C0202E4501800E911C07FD9A94822DBA
:101D8000022C000C990B8815990564F5232D422D22
:101D9000652DCE010E94130E2394F1CF89A198A145
:101DA000891701F188A381E0381206C0462D6C2DF9
:101DB000CE010E94BB0D15C0202E4501800E911C46
:101DC00007FD9A94822D022C000C990B8815990519
:101DD00044F4232D422D652DCE010E94130E239431
:101DE000F1CF48A216956394030DADCFC394530C65
:101DF00089CF48A228853C818985329F800D112496
:101E000089879F81992399F0082E000C990B44E54E
:101E100050E0239F401951091124481759073CF4F9
:101E20009D818A85299F800D11248A87198681E0EA
:101E300090E0DF91CF911F910F91FF90EF90DF9095
:101E4000CF90BF90AF909F908F907F906F905F905A
:101E50004F903F902F9008958F929F92AF92BF9294
:101E6000CF92DF92EF92FF920F931F93CF93DF9366
:101E700082E380930D0581E090E0A0E0B0E08093E4
:101E8000090590930A05A0930B05B0930C058FEFFD
:101E90008093FE04E0E8F7E7259134912130304C3F
:101EA00009F049C0E6E9F7E7E491E093E704E7E9E0
:101EB000F7E7E491E0939204E8E9F7E7E491E0932F
:101EC0009304E9E9F7E785919491909395048093C1
:101ED0009404EBE9F7E785919491909397048093AC
:101EE000960487E08093B904EEE9F7E7E491E09384
:101EF000B804EFE9F7E7E491E093FE04E0EAF7E7DE
:101F0000859194919093AB048093AA04E2EAF7E759
:101F1000859194919093AD048093AC04E4EAF7E743
:101F2000859194919093AF048093AE04E6EAF7E72D
:101F3000859194912CC09CE39093E70410929204B5
:101F40008093930480E293E09093950480939404AB
:101F500084ED93E0909397048093960487E08093B8
:101F6000B9048093B8048CEA9DE09093AB0480930D
:101F7000AA048EED9DE09093AD048093AC0484E7B9
:101F80009EE09093AF048093AE048CE39FE0909327
:101F9000B1048093B004C1E0C0938E046FEF70E091
:101FA00085E00E94050B88E08093980489E0809387
:101FB000990487E080939A0486E080939B04D4E0A0
:101FC000D0939C0482E080939D0481E180939E04E1
:101FD0000E94E0188CE39FE09093A9048093A804EA
:101FE000D093A704C093B2048BE08093EA048DE001
:101FF0008093E90480E18093EB048EE08093ED040C
:102000008FE08093EC04C093E404C093FC0410922E
:10201000FD04C093E304ECEDF1E1E491EF5FE093A4
:10202000E004EDEDF1E1E491EF5FE093E1048EED8A
:1020300091E19093FB048093FA04CFB7F8948091D8
:102040007E02811127C0E3EDF3E18491E7EEF3E135
:102050009491E82FF0E0EE0FFF1FE059FE4EA5919E
:10206000B491EC91E92321F461E08AE00E94990A9D
:1020700061E08AE00E94C90A8CB580618CBD8CB594
:1020800080648CBD61E08DE00E94C90A61E08BE054
:102090000E94C90A80917E028F5F80937E02CFBF2B
:1020A0008CB58F7D8CBD8CB58C7F81608CBD8DB5E2
:1020B00081608DBD8CB58C608CBD61E08091EA043F
:1020C0000E94C90A61E08091E9040E94C90A61E0A6
:1020D0008091EB040E94C90A8091ED0418161CF44B
:1020E00061E00E94C90A8091EC0418161CF461E0BA
:1020F0000E94C90A8091ED04181674F460E00E94F1
:10210000990A6AE070E080E090E00E94A00B61E034
:102110008091ED040E94990A8091E904082E000C38
:10212000990BFC01E753FC4EE491F0E0EE0FFF1F2A
:10213000E658FE4E259134913093F1042093F0043B
:10214000FC01E352FC4EE491E093F7048091EA0431
:10215000082E000C990BFC01E753FC4EE491F0E0D3
:10216000EE0FFF1FE658FE4E259134913093EF0499
:102170002093EE04FC01E352FC4EE491E093F6045C
:102180008091EC04082E000C990BFC01E753FC4EE7
:10219000E491F0E0EE0FFF1FE658FE4E25913491DA
:1021A0003093F3042093F204FC01E352FC4EE491DB
:1021B000E093F8048091EB04082E000C990BFC01CD
:1021C000E753FC4EE491F0E0EE0FFF1FE658FE4EA1
:1021D000259134913093F5042093F404FC01E352EB
:1021E000FC4EE491E093F90481E20E94341984E109
:1021F0000E9434198091E70487FF03C08FE7809322
:10220000E7048091E70480680E94341980E20E940C
:1022100034198CE00E9434190E945319C1E0C09314
:10222000B70484E08093DB0489E09DE09093C304CD
:102230008093C20460E080E00E94631A61E070E075
:1022400083E00E94050B8091B100887F81608093BC
:10225000B100F894109280001092810010928500D5
:102260001092840088E191E0909389008093880027
:1022700080918100886080938100809181008160DD
:102280008093810080916F00826080936F007894CA
:102290000E94DD1B8091A404813019F41092B804CF
:1022A0001CC08091A7048823C9F380E00E94C9184C
:1022B0008DE09DE09093C1048093C0041092C60409
:1022C0001092C504C093B40489E08093C9041092AD
:1022D000CC041092CE041092D0048091FE04882386
:1022E00009F4EBC081E08093E4041092E3041092BF
:1022F000E2041092A6048093FC048093FD04CFE6D0
:10230000D1E18CE0F82E04E811E1EE24E39499E0A9
:10231000D92E0E94F9128823E1F3FE0184918823CB
:1023200019F0C090E10401C0C12C27E33DE040E07A
:1023300060E08CED94E00E94790C4CE04C0D29E2B9
:1023400030E160E08CED94E00E94790C1092E5049D
:10235000F092E6048FE691E10E9493198091E004E7
:10236000982F990F890F81958D5A8093E50480915C
:10237000E104982F990F890F8195835D8093E6047E
:102380008091FF0484FF03C083E39DE002C08FE2DD
:102390009DE00E94B4198091E004982F990F890F55
:1023A00081958D5A8093E5048091E6048F5F809338
:1023B000E6048091B804882319F08BE29DE002C006
:1023C00087E29DE00E94B4198091E004982F990F54
:1023D000890F81958D5A8093E5048091E6048F5F83
:1023E0008093E60483E29DE00E94B4198091A404E6
:1023F000813039F58091B8048F5F6091B90487FD11
:1024000009C0082E000C990B70E06F5F7F4F0E948F
:102410007523682F6093B80480E00E94C918109358
:10242000C1040093C0041092C6041092C504E09247
:10243000B404D092C9041092CC041092CE0410922D
:10244000D0048091A3048130B9F08091FE04482F1C
:1024500050E060E070E08090FF0490900005A09054
:102460000105B090020584169506A606B70608F485
:1024700043C08F3F09F440C08FEF8093FE0480E09B
:102480000E94C91880E00E94C9188BE19DE09093DA
:10249000C1048093C0041092C6041092C50481E068
:1024A0008093B40499E09093C9041092CC041092E4
:1024B000CE041092D0048093A604E7EAFDE0E491F4
:1024C000EF5FE093E004E8EAFDE0E491EF5FE09382
:1024D000E10489EA9DE09093FB048093FA04DF9184
:1024E000CF911F910F91FF90EF90DF90CF90BF9011
:1024F000AF909F908F9008958091A504813009F04E
:1025000008CF0E94C41905CFCF92DF92EF92FF92BD
:102510000F931F93CF93DF93C82FD62F142F422FE3
:10252000022E000C550B461B510967FD539557FFB2
:1025300003C0519541955109812F012E000C990B33
:102540008C1B9109C7FD939597FF03C091958195C9
:102550009109DD24D3948417950714F0D12C06C07B
:10256000812F122F282F8C2FCD2FD82F1C1734F40A
:102570008D2FD22F282F8C2FC12F182FE12EEC1A40
:10258000822F022E000C990B8D1B9109D7FD93957C
:1025900097FF03C0919581959109F82E0E2DE7FEC6
:1025A00002C001E00E0D0595D2171CF0CC24CA9490
:1025B00011C0CC24C3940EC0DD2079F04C2F6D2FB8
:1025C0008CED94E00E94BB0D0F1907FF02C0DC0DDB
:1025D0000E0DCF5F1C1784F703C04D2F6C2FF0CF6B
:1025E000DF91CF911F910F91FF90EF90DF90CF90EF
:1025F00008954F925F926F927F928F929F92AF92C7
:10260000BF92CF92DF92EF92FF920F931F93CF93DF
:10261000DF9300D000D01F92CDB7DEB740910E05FA
:1026200050910F0560911005709111052FB7F89426
:102630008091870290918802A0918902B0918A02CC
:102640002FBF481B590B6A0B7B0B80910D0590E047
:10265000A0E0B0E00091090510910A0520910B055A
:1026600030910C0584179507A607B70730F40115BC
:1026700011052105310509F040C3012B022B032B65
:1026800009F039C38091A50481508E3FC0F5809137
:10269000A4048130C9F58091B8048F5F6091B904BA
:1026A00087FD09C0082E000C990B70E06F5F7F4F0B
:1026B0000E947523682F6093B8048BE693E1909392
:1026C00013058093120588E48093140580E00E942E
:1026D000C91884E891E19093C1048093C0041092DA
:1026E000C6041092C50481E08093B40489E080930D
:1026F000C9041092CC041092CE041092D0048091A0
:10270000A50481508E3F70F48091A304813009F0BC
:10271000A0C38EE593E1909313058093120588E49E
:102720008093140580E00E94F9198091B4048823F5
:1027300009F4ABC08091C8048111A7C08091C00486
:102740009091C104E091C504F091C604EE0FFF1F03
:10275000E80FF91F4591549141155105F1F420916D
:10276000C404222331F01092C6041092C504FC0167
:1027700012C01092B4048091B304882341F080E029
:102780000E94F919E091C504F091C6042DC080E0C3
:102790000E94B4187AC0459154919A0136952795B4
:1027A0003695279540FF51C0CA01B6E096958795AA
:1027B000BA95E1F78F71952F9695969596959051CC
:1027C0002F70223071F1F8F4211117C08B3008F00E
:1027D0008AE08093C904E091C504F091C604319663
:1027E000F093C604E093C504EE0FFF1F8091C00470
:1027F0009091C104E80FF91FCECF213061F760E05E
:102800000E94631AE8CF2330B1F0243021F72091E1
:10281000B704829F802D11248093D0049093D1041B
:10282000DACF2091B704829F802D11248093CC04AD
:102830009093CD04D0CF2091B704829F802D112496
:102840008093CE049093CF04C6CF2F732093C704F8
:102850008091B704859F802D11248093C804109225
:10286000D8041092D7041092D60481E08093CA0451
:1028700080938B041092CB048091C5049091C60480
:1028800001969093C6048093C5048091CA0488235E
:1028900009F4EEC08091C804811103C00E94B418ED
:1028A000E7C081508093C8048091D804811146C04C
:1028B0002091D6043091D7042F5F3F4FC901880F74
:1028C000991FE091D204F091D304E80FF91F6591AC
:1028D0007491862F87708093D904AB0163E056957D
:1028E00047956A95E1F7CA0196958795972F969532
:1028F00096959093DA048F739091B704899F802DF9
:1029000011248093D8044170409386023093D704F9
:102910002093D6048091D40490E02817390770F0F2
:102920002091D504222339F0821B91099093D7047A
:102930008093D60403C080E00E94B4188091D8042C
:1029400081508093D8048091CB0421E0280F2093FC
:10295000CB044091C7043091DA04340F8091BF0456
:10296000380F3093B5046091CE04662371F070E0A7
:10297000822F022E000C990B0E9475238091CF04A8
:10298000869F300D11243093B5048091B50490E0FA
:10299000849664E270E00E9475238093B5043091C0
:1029A000C9043093B6046091CC04662381F0062EEE
:1029B000000C770B822F022E000C990B0E947523BE
:1029C0008091CD04869F300D11243093B604609120
:1029D000D0046623A1F0822F220F990B70E00E9491
:1029E0007523CB0162E070E00E9475232091D10431
:1029F0009091B604289F900D11249093B604809175
:102A0000B6044F3341F08A300CF089E087FD80E056
:102A10008093B60402C01092B604F894E091B50415
:102A2000F0E0E657FE4EE491E09385023091B60463
:102A30002091DB043203900111244091D904420318
:102A4000C001439F900D11240090B80402C0880F6C
:102A5000991F0A94E2F797FF02C081589F4F880F91
:102A6000892F881F990B80938C0480938D04789410
:102A700080911405882309F493C08C3020F49CE0E5
:102A8000D92ED81A01C0D12C81E08093E404109291
:102A9000FC041092FD041091E10483E0810F3D2DB0
:102AA000311B335D032FE82E880FFF08E30EF11C66
:102AB00037FDFA94802F002E000C990B8E159F0580
:102AC0005CF42EE4402F63E08CED94E03D830E94A3
:102AD000130E0F5F3D81EECF145003E0030F212F43
:102AE00041E0602F80E50E94341B212F42E0602FDF
:102AF00083E00E94341B81E08093FC048093FD04FA
:102B00000091E1048D2D801B3DE2F32EF80E2EE4A2
:102B10004F2D63E08CED94E00E94130E13E0100F34
:102B20001F0D4FEF410F2EE463E08CED94E00E9407
:102B3000130E035033E0F30E402F6F2D80E00E9400
:102B40001C1B402F6F2D83E50E941C1B41E06F2D45
:102B500083E00E949E1A42E06F2D80E50E949E1A3B
:102B6000145044E0612F80E50E949E1A48E0612FD6
:102B700083E00E949E1A84E08093E5048091E10442
:102B8000D81A8D2D815D8093E60480911205909175
:102B900013050E94931980911405815080931405A8
:102BA0008091AA049091AB04892B09F47CC011E0B8
:102BB0001093FC041092FD049091E00485E5891BBC
:102BC0008093E5041092E6048091A704813009F413
:102BD0004DC030F09091A604853008F05FC05AC017
:102BE00080E00E94C9181093E404ECEDF1E1E49157
:102BF000EF5FE093E004EDEDF1E1E491EF5FE0934E
:102C0000E1048EED91E19093FB048093FA0410921D
:102C1000AB041092AA041092E20418EA0E94F9127E
:102C20008823E1F38EEC91E10E9493196091A8044E
:102C30007091A90480E090E04AE00E948F1B89EB2C
:102C400091E10E949319612F62956F7070E080E0AE
:102C500090E04AE00E948F1B8EEA91E10E94931956
:102C60008091A304813009F0FAC01DC08091FF0457
:102C700090910005A0910105B09102058F709927F0
:102C8000AA27BB270897A105B10510F487E009C062
:102C900088E707C0992339F08B5F03C0992319F0A7
:102CA0008FE20E94D21B0E9453198091E20481118D
:102CB0000EC088EF91E0EBE8F2E0DF019C011D928D
:102CC00021503040E1F71092E5041092E6040E9492
:102CD0007B0B6093090570930A0580930B05909315
:102CE0000C052091050530910605621B730B70934E
:102CF00004056093030580E0CCC02FB7F894809161
:102D0000870290918802A0918902B0918A022FBF18
:102D100020910D05820F911DA11DB11D80930E05FF
:102D200090930F05A0931005B09311058091FF04B7
:102D300090910005A0910105B09102050196A11D99
:102D4000B11D8093FF0490930005A0930105B093FB
:102D500002051092090510920A0510920B051092B7
:102D60000C050E947B0B609305057093060580930C
:102D700007059093080580918F04909190042FE0AF
:102D8000289F8001299F100D112485E10E94640B6A
:102D9000800F911F24E0969587952A95E1F79093EF
:102DA000900480938F0420918E04222309F44BC059
:102DB00060919204262F30E040E050E029833A836E
:102DC0004B835C83C0909304D12CE12CF12C409177
:102DD0009604509197044A01A12CB12C209194049F
:102DE000309195042901612C712C8217930728F0EA
:102DF0009C014817590708F49A01C901A0E0B0E006
:102E00009C01AD01241935094609570969817A8168
:102E10008B819C816C197D098E099F090E94592321
:102E2000A501940124193509460957090E94D224A5
:102E3000C20ED31EE41EF51EC09291046C2D70E0EC
:102E400085E00E94050B0E94E0180E94DD1B81E0D6
:102E500020C0893209F066CC0E94C41963CC11509D
:102E600009F0DCCE60E070E085E00E94050B83B7DE
:102E7000817F846083BF83B7816083BF83B78160B4
:102E800083BF889583B78E7F83BF83B78E7F83BFD1
:102E9000C5CE0F900F900F900F900F90DF91CF91B4
:102EA0001F910F91FF90EF90DF90CF90BF90AF9068
:102EB0009F908F907F906F905F904F900895EF92CA
:102EC000FF920F931F93CF93DF93C82FD62F142F0A
:102ED000F22E0E9484122E2D402F6F2D812F0E94E2
:102EE00084122D2F4C2F6E2D802FDF91CF911F91AB
:102EF0000F91FF90EF900C9484122F923F924F927B
:102F00005F926F927F928F929F92AF92BF92CF9279
:102F1000DF92EF92FF920F931F93CF93DF93CDB782
:102F2000DEB729970FB6F894DEBF0FBECDBF282EAF
:102F30006987F42E322E261754F4E6160CF0E3C0FF
:102F40003E2CE62E2987F02E022D242E08C0E216F4
:102F500074F4832D3E2CE82E8F2DF02E082F39850A
:102F600033162CF43986332E822D2F2CF82E3985EA
:102F70003E112FC0F21434F0822D2F140CF48F2D3B
:102F8000F22C282E0F1524F020160CF4202E0F2DD5
:102F900021E0220D201B4985602F8CED94E02996BD
:102FA0000FB6F894DEBF0FBECDBFDF91CF911F915A
:102FB0000F91FF90EF90DF90CF90BF90AF909F90D8
:102FC0008F907F906F905F904F903F902F900C94D8
:102FD000130E822D022C000C990B2F2D0F2C000CA0
:102FE000330BA901481B590B5C834B83832C032CA7
:102FF000000C99085985A52E550FBB08F401EA1954
:10300000FB09FE83ED83002E000C110B6801C81A2A
:10301000D90A8E2D0E2C000C990BAC014A195B09B4
:103020005A834983021B130BFC01E819F909F8873D
:10303000EF833E103A94412C512C612C712C398530
:1030400033162CF1C3016D817E810E947523322DD0
:10305000360FC20169817A810E947523222D260FC5
:103060004B815C81640E751E4C0C5D1C23171CF497
:10307000832F322F282F2F5F231B4985632F8CED41
:1030800094E00E94130E39853F5F3987D8CF832F94
:10309000330F990B9C0128193909029F4001039FA6
:1030A000900C129F900C11248A199B09C89E500104
:1030B000C99EB00CD89EB00C11243985E31644F19A
:1030C000C4016F8178850E9475233F2D360FC5019D
:1030D00069817A810E947523222D260F800E911E10
:1030E000AC0CBD1C23171CF4832F322F282F2F5F0D
:1030F000231B4985632F8CED94E00E94130E3985C4
:103100003F5F3987DACF39842987F22C242E2FCFDD
:1031100029960FB6F894DEBF0FBECDBFDF91CF91D9
:103120001F910F91FF90EF90DF90CF90BF90AF90E5
:103130009F908F907F906F905F904F903F902F90D7
:103140000895CF93DF93BC018CED94E00E945B0A5D
:10315000EC016AE672E08CED94E00E945B0A8C0F51
:103160009D1FDF91CF910895811112C01092CA0462
:103170001092C8041092D7041092D6041092CB0477
:1031800010928D0410928C0410928B040C94240CD9
:103190000895811114C01092CA041092C8041092AC
:1031A000D7041092D6041092CB0410928D04109282
:1031B0008C0410928B040E94240C1092B404089585
:1031C000CF92DF92EF92FF920F931F93CF93DF93F3
:1031D000C8E9D4E00FE914E0FF24FA9497E0E92E5F
:1031E000E00E62E088810E94C90A288130E0F9017E
:1031F000EF50FC4E8491F901E352FC4EC490F9016A
:10320000E753FC4ED490DD2071F081110E94700ACA
:10321000ED2DF0E0EE0FFF1FE154FC4EA591B491AF
:10322000EC91EC21B1F4F80180818F5F808360E044
:1032300088810E94C90A21960F5F1F4FE012D1CFEB
:10324000DF91CF911F910F91FF90EF90DF90CF9082
:103250000895F8018081882371F3F8018F3F11F4FC
:103260001082E5CFF082E3CFCF93C82FF89460E0CF
:103270008091EB040E94990A8091EC0418161CF4CA
:1032800060E00E94990ACEBD00000DB407FEFDCF9C
:103290008EB58091EC0418161CF461E00E94990A26
:1032A0007894CF9108950F931F93CF938091E80462
:1032B0008F5F8093E8040BE812E0C0E08C2F8064FD
:1032C0000E94341980E80E94341961E08091EB0477
:1032D0000E94990A8091EC0418161CF460E00E9488
:1032E000990A80E090E0F801E80FF91F20812EBDD7
:1032F00000000DB407FEFDCF2EB501968435910573
:1033000091F78091EC0418161CF461E00E94990A70
:10331000CF5F0C5A1F4FC63089F680E4CF911F91C2
:103320000F910C9434190F931F93CF93DF938C015B
:10333000C0E0D0E0F801EC0FFD1F6491662371F04E
:10334000E091DC04F091DD040190F081E02D8CED42
:1033500094E00995892B11F02196ECCFCE01DF91F5
:10336000CF911F910F910895CF93DF930E949319EE
:10337000EC016AE672E08CED94E00E945B0A8C0F2F
:103380009D1FDF91CF91089588EF91E0EBE8F2E087
:10339000DF019C011D9221503040E1F71092E504BD
:1033A0001092E60487E993E10E9493190E94531951
:1033B0008CB583608CBD8DB58E7F8DBD8DE692E022
:1033C000EEEFFFE309951092E20482E793E10E9499
:1033D000B4190E9453190E94E0188091A30481300F
:1033E00039F062E370E080E090E00E94A00BF3CF40
:1033F0000895AF92BF92CF92DF92EF92FF920F9318
:103400001F93CF93DF93C82ED12CE601C257DB4F19
:103410009DA1992309F44CC07E019FEFE91AF90A96
:10342000F70195A1911144C09EA58601000F111FBF
:1034300002571B4FF80134A525A5E32FF22FE90F02
:10344000F11DE90FF11D259134912F3FFFEF3F074B
:1034500011F41DA22DC039ABF601EE0FFF1FE85687
:10346000FB4F3327220F331F05A0F6A1E02DE20FFB
:10347000F31FA590B490811117C00E94C918F801DC
:10348000B3AAA2AAF601EE0FFF1FE056FB4F16A249
:1034900015A281E0F70185A389E08BAF1EAEFE0186
:1034A0007B9615A2329615A229968DA18F5F8DA3CA
:1034B000DF91CF911F910F91FF90EF90DF90CF9010
:1034C000BF90AF90089570E0DB01AA0FBB1FA25719
:1034D000BB4FD4962C91D497D5969C91D597E22F3B
:1034E000F92FE80FF11DE80FF11D259134915F963A
:1034F00096963C932E939597F9018591949190918E
:10350000B704989F802D112462577B4FFB01B19621
:1035100085A3F901A591B4914B2F50E0E82FF0E07D
:103520004E175F0720F4F90125913491832FFB0199
:10353000B296899F802D112485A30895AF92BF92E2
:10354000CF92DF92EF92FF920F931F93CF93DF936F
:10355000182F062FC1E0D3E08AEFD82E9EEFE92E78
:10356000842F8470C82E842F8270B82E842F887088
:10357000A82E4170F42E8C2F880F8F5FE80ECC2080
:1035800081F04D2F400F6C2F610F8CED94E00E9465
:10359000BB0D4C2F400F6D2F610F8CED94E00E94FE
:1035A000BB0DBB2081F0402F4D1B6C2F610F8CEDAC
:1035B00094E00E94BB0D402F4C1B6D2F610F8CEDD2
:1035C00094E00E94BB0DAA2081F04C2F400F612F88
:1035D0006D1B8CED94E00E94BB0D4D2F400F612FB1
:1035E0006C1B8CED94E00E94BB0DFF2081F0402FFE
:1035F0004C1B612F6D1B8CED94E00E94BB0D402F86
:103600004D1B612F6C1B8CED94E00E94BB0DCD1700
:1036100044F4E7FC04C0D150D394D394ED0CCF5FB5
:10362000AACFDF91CF911F910F91FF90EF90DF9084
:10363000CF90BF90AF9008950F931F93CF93DF93D8
:10364000182F062FD42FC0E0CD174CF44C2F400F6D
:10365000612F8CED94E00E94BB0DCF5FF5CFDF9121
:10366000CF911F910F9108959F92AF92BF92CF92E9
:10367000DF92EF92FF920F931F93CF93DF93F82E79
:10368000E62EB22E03E0020FD0E0C3E08AEFC82E90
:103690001EEF842F8170982EAA24A394A20E42704C
:1036A000D42EDF5F802F8B19180F992081F04C2FBB
:1036B000440F4A0D6E2D6C1B8D2F8F0D0E941C1B0D
:1036C000402F6E2D6D1B8C2F8F0D0E941C1BDD203B
:1036D00081F04C2F440F4A0D6E2D6C1B8F2D8D1BCE
:1036E0000E941C1B402F6E2D6D1B8F2D8C1B0E946A
:1036F0001C1BDC1744F417FD04C0C150C394C394D1
:103700001C0D0E5FCECFDF91CF911F910F91FF90D7
:10371000EF90DF90CF90BF90AF909F9008958F92E1
:103720009F92AF92BF920F931F93CF93DF93CDB72A
:10373000DEB7A1970FB6F894DEBF0FBECDBF19A2BA
:10374000423008F44AE08E010F5D1F4F842E912C09
:10375000A12CB12CA50194010E94FC24E62FB901F3
:10376000CA0101501109EA3014F4E05D01C0E95CBE
:10377000D801EC93232B242B252B61F7B8018CED7A
:1037800094E00E945B0AA1960FB6F894DEBF0FBECC
:10379000CDBFDF91CF911F910F91BF90AF909F90C0
:1037A0008F900895E091DC04F091DD040190F081A8
:1037B000E02D682F8CED94E009948091AA049091FB
:1037C000AB04892BB1F18091B2048F7169F584E16A
:1037D0000E94640BBC01990F880B990B0E94D423A3
:1037E00026EE3FE34EEC50E40E9438240E94A323CF
:1037F0009B017093A9046093A804672B91F084E067
:103800008093A704EAEAF4E080E041915191241703
:10381000350718F48093A70408958F5F8430A9F7C3
:1038200003C08FEF8093A7048091B2048F5F8093D1
:10383000B2040895789484B5826084BD84B58160B3
:1038400084BD85B5826085BD85B5816085BD80916B
:103850006E00816080936E001092810080918100E3
:1038600082608093810080918100816080938100DB
:10387000809180008160809380008091B10084609D
:103880008093B1008091B00081608093B0008091FE
:103890007A00846080937A0080917A0082608093BD
:1038A0007A0080917A00816080937A0080917A001A
:1038B000806880937A001092C1000E942C0F95E0DE
:1038C000292E312CC8E4D0E00E94F912882309F493
:1038D00021C68091A504813009F424C640907C0261
:1038E00050907D02F201EE0FFF1FE35FFE4F20813B
:1038F000318149E160E08CED94E00E94790C6090A8
:103900007A0270907B02F301EE0FFF1FE35FFE4F20
:103910002081318149E161E18CED94E00E94790CD4
:103920008090780290907902F401EE0FFF1FE35F20
:10393000FE4F2081318149E162E28CED94E00E94EA
:10394000790CA0907602B0907702F501EE0FFF1F80
:10395000E35FFE4F2081318149E163E38CED94E028
:103960000E94790CC0907402D0907502F601EE0F9F
:10397000FF1FE35FFE4F2081318149E164E48CED5C
:1039800094E00E94790C80919F048F3F71F48091A4
:1039900000019091010101971816190614F081E0B9
:1039A00090E090930101809300018091A1048F3FEA
:1039B00069F4809100019091010101968630910592
:1039C0000CF4B3C5309201012092000180910001F6
:1039D000909101018330910509F44BC034F481309A
:1039E000910559F0029739F19BC08430910509F493
:1039F0005DC0059709F477C093C057E1E52E0BE051
:103A000023E147E067E183E00E945F176AE2E62E68
:103A10002EE247E06AE283E00E945F178091A004F3
:103A200081508E3F08F486C58091A20481508E3F5C
:103A300008F076C090C537E1E32E0CE123E148E1C0
:103A400067E184E10E945F174AE2E42E2EE248E13A
:103A50006AE284E10E945F178091A00481508E3F4A
:103A600008F48CC58091A20481508E3F08F058C0A4
:103A700096C597E1E92E0DE223E149E267E185E28F
:103A80000E945F172AE2E22E2EE249E26AE285E214
:103A90000E945F178091A00481508E3F08F492C568
:103AA0008091A20481508E3FD8F59DC507E1E02E9C
:103AB0000EE323E14AE367E186E30E945F178AE2AF
:103AC000E82E2EE24AE36AE286E30E945F178091C5
:103AD000A00481508E3F08F499C58091A2048150C2
:103AE0008E3FF0F4A4C5A7E1EA2E0FE423E14BE4F6
:103AF00067E187E40E945F17BAE2EB2E2EE24BE407
:103B00006AE287E40E945F178091A00481508E3F93
:103B100008F4A0C58091A20481508E3F08F4ABC583
:103B20001092E5041092E604E0917C02F0917D028F
:103B3000E834F10508F0DDC0EC5CFF4F0C948923FC
:103B40008AEC91E0D4C085EA91E0D1C088EA91E0A6
:103B5000CEC08BEA91E0CBC08EEA91E0C8C081EB89
:103B600091E0C5C084EB91E0C2C087EB91E0BFC09B
:103B70008AEB91E0BCC08DEB91E0B9C080EC91E0A4
:103B8000B6C083EC91E0B3C086EC91E0B0C089ECA4
:103B900091E0ADC08CEC91E0AAC08DEE91E0A7C0A1
:103BA0008FEC91E0A4C082ED91E0A1C086ED91E0A0
:103BB0009EC08AED91E09BC087ED91E098C08DEDAD
:103BC00091E095C080EE91E092C083EE91E08FC0CD
:103BD00086EE91E08CC089EE91E089C08CEE91E098
:103BE00086C08FEE91E083C08FE092E080C082EFCC
:103BF00091E07DC086EF91E07AC085EF91E077C0DB
:103C000089EF91E074C08CEF91E071C08FEF91E08B
:103C10006EC082E092E06BC085E092E068C088E010
:103C200092E065C08BE092E062C08EE092E05FC0FF
:103C300081E192E05CC084E192E059C089E392E0C6
:103C400056C087E192E053C08AE192E050C08DE116
:103C500092E04DC080E292E04AC083E292E047C029
:103C600086E292E044C089E292E041C08CE292E0B8
:103C70003EC08FE292E03BC082E392E038C085E331
:103C800092E035C088E392E032C08BE392E02FC02F
:103C900080E692E02CC08EE392E029C081E492E0BD
:103CA00026C084E492E023C087E492E020C08AE446
:103CB00092E01DC08DE492E01AC080E592E017C04A
:103CC00083E592E014C086E592E011C089E592E0B8
:103CD0000EC08CE592E00BC08FE592E008C082E652
:103CE00092E005C085E692E002C088E692E00E947C
:103CF000A11881E18093E5041092E604E0917A0234
:103D0000F0917B02E834F10508F0DDC0E458FF4F84
:103D10000C9489238AEC91E0D4C085EA91E0D1C06B
:103D200088EA91E0CEC08BEA91E0CBC08EEA91E0C8
:103D3000C8C081EB91E0C5C084EB91E0C2C087EBC5
:103D400091E0BFC08AEB91E0BCC08DEB91E0B9C0BF
:103D500080EC91E0B6C083EC91E0B3C086EC91E0DA
:103D6000B0C089EC91E0ADC08CEC91E0AAC08DEEC2
:103D700091E0A7C08FEC91E0A4C082ED91E0A1C0DA
:103D800086ED91E09EC08AED91E09BC087ED91E0C9
:103D900098C08DED91E095C080EE91E092C083EEE9
:103DA00091E08FC086EE91E08CC089EE91E089C0F1
:103DB0008CEE91E086C08FEE91E083C08FE092E0C0
:103DC00080C082EF91E07DC086EF91E07AC085EF00
:103DD00091E077C089EF91E074C08CEF91E071C001
:103DE0008FEF91E06EC082E092E06BC085E092E0E0
:103DF00068C088E092E065C08BE092E062C08EE02F
:103E000092E05FC081E192E05CC084E192E059C041
:103E100089E392E056C087E192E053C08AE192E0E4
:103E200050C08DE192E04DC080E292E04AC083E252
:103E300092E047C086E292E044C089E292E041C04D
:103E40008CE292E03EC08FE292E03BC082E392E0DF
:103E500038C085E392E035C088E392E032C08BE35E
:103E600092E02FC080E692E02CC08EE392E029C061
:103E700081E492E026C084E492E023C087E492E0EB
:103E800020C08AE492E01DC08DE492E01AC080E573
:103E900092E017C083E592E014C086E592E011C07D
:103EA00089E592E00EC08CE592E00BC08FE592E0D0
:103EB00008C082E692E005C085E692E002C088E68E
:103EC00092E00E94A11882E28093E5041092E60439
:103ED000E0917802F0917902E834F10508F0DDC054
:103EE000EC53FF4F0C9489238AEC91E0D4C085EA0F
:103EF00091E0D1C088EA91E0CEC08BEA91E0CBC0DE
:103F00008EEA91E0C8C081EB91E0C5C084EB91E0FE
:103F1000C2C087EB91E0BFC08AEB91E0BCC08DEBE3
:103F200091E0B9C080EC91E0B6C083EC91E0B3C001
:103F300086EC91E0B0C089EC91E0ADC08CEC91E0F2
:103F4000AAC08DEE91E0A7C08FEC91E0A4C082EDF5
:103F500091E0A1C086ED91E09EC08AED91E09BC00A
:103F600087ED91E098C08DED91E095C080EE91E0F5
:103F700092C083EE91E08FC086EE91E08CC089EE16
:103F800091E089C08CEE91E086C08FEE91E083C015
:103F90008FE092E080C082EF91E07DC086EF91E0FB
:103FA0007AC085EF91E077C089EF91E074C08CEF23
:103FB00091E071C08FEF91E06EC082E092E06BC043
:103FC00085E092E068C088E092E065C08BE092E016
:103FD00062C08EE092E05FC081E192E05CC084E16B
:103FE00092E059C089E392E056C087E192E053C065
:103FF0008AE192E050C08DE192E04DC080E292E013
:104000004AC083E292E047C086E292E044C089E27F
:1040100092E041C08CE292E03EC08FE292E03BC071
:1040200082E392E038C085E392E035C088E392E015
:1040300032C08BE392E02FC080E692E02CC08EE38A
:1040400092E029C081E492E026C084E492E023C09B
:1040500087E492E020C08AE492E01DC08DE492E003
:104060001AC080E592E017C083E592E014C086E5AF
:1040700092E011C089E592E00EC08CE592E00BC0A1
:104080008FE592E008C082E692E005C085E692E006
:1040900002C088E692E00E94A11883E38093E504C1
:1040A0001092E604E0917602F0917702E834F1058F
:1040B00008F0DDC0E45FFE4F0C9489238AEC91E0A8
:1040C000D4C085EA91E0D1C088EA91E0CEC08BEA05
:1040D00091E0CBC08EEA91E0C8C081EB91E0C5C011
:1040E00084EB91E0C2C087EB91E0BFC08AEB91E026
:1040F000BCC08DEB91E0B9C080EC91E0B6C083EC20
:1041000091E0B3C086EC91E0B0C089EC91E0ADC025
:104110008CEC91E0AAC08DEE91E0A7C08FEC91E00D
:10412000A4C082ED91E0A1C086ED91E09EC08AED31
:1041300091E09BC087ED91E098C08DED91E095C036
:1041400080EE91E092C083EE91E08FC086EE91E028
:104150008CC089EE91E089C08CEE91E086C08FEE34
:1041600091E083C08FE092E080C082EF91E07DC05B
:1041700086EF91E07AC085EF91E077C089EF91E01A
:1041800074C08CEF91E071C08FEF91E06EC082E05F
:1041900092E06BC085E092E068C088E092E065C084
:1041A0008BE092E062C08EE092E05FC081E192E03D
:1041B0005CC084E192E059C089E392E056C087E197
:1041C00092E053C08AE192E050C08DE192E04DC090
:1041D00080E292E04AC083E292E047C086E292E049
:1041E00044C089E292E041C08CE292E03EC08FE29E
:1041F00092E03BC082E392E038C085E392E035C0B4
:1042000088E392E032C08BE392E02FC080E692E038
:104210002CC08EE392E029C081E492E026C084E4C1
:1042200092E023C087E492E020C08AE492E01DC0BF
:104230008DE492E01AC080E592E017C083E592E039
:1042400014C086E592E011C089E592E00EC08CE5CD
:1042500092E00BC08FE592E008C082E692E005C0D4
:1042600085E692E002C088E692E00E94A11884E40C
:104270008093E5041092E604E0917402F0917502D7
:10428000E834F10508F0DDC0EC5AFE4F0C948923A8
:104290008AEC91E0D4C085EA91E0D1C088EA91E04F
:1042A000CEC08BEA91E0CBC08EEA91E0C8C081EB32
:1042B00091E0C5C084EB91E0C2C087EB91E0BFC044
:1042C0008AEB91E0BCC08DEB91E0B9C080EC91E04D
:1042D000B6C083EC91E0B3C086EC91E0B0C089EC4D
:1042E00091E0ADC08CEC91E0AAC08DEE91E0A7C04A
:1042F0008FEC91E0A4C082ED91E0A1C086ED91E049
:104300009EC08AED91E09BC087ED91E098C08DED55
:1043100091E095C080EE91E092C083EE91E08FC075
:1043200086EE91E08CC089EE91E089C08CEE91E040
:1043300086C08FEE91E083C08FE092E080C082EF74
:1043400091E07DC086EF91E07AC085EF91E077C083
:1043500089EF91E074C08CEF91E071C08FEF91E034
:104360006EC082E092E06BC085E092E068C088E0B9
:1043700092E065C08BE092E062C08EE092E05FC0A8
:1043800081E192E05CC084E192E059C089E392E06F
:1043900056C087E192E053C08AE192E050C08DE1BF
:1043A00092E04DC080E292E04AC083E292E047C0D2
:1043B00086E292E044C089E292E041C08CE292E061
:1043C0003EC08FE292E03BC082E392E038C085E3DA
:1043D00092E035C088E392E032C08BE392E02FC0D8
:1043E00080E692E02CC08EE392E029C081E492E066
:1043F00026C084E492E023C087E492E020C08AE4EF
:1044000092E01DC08DE492E01AC080E592E017C0F2
:1044100083E592E014C086E592E011C089E592E060
:104420000EC08CE592E00BC08FE592E008C082E6FA
:1044300092E005C085E692E002C088E692E00E9424
:10444000A11880917C0290917D028934910524F01D
:1044500010927D0210927C0280917A0290917B02F0
:104460008934910524F010927B0210927A02809197
:104470007802909179028934910524F010927902A2
:10448000109278028091760290917702893491059A
:1044900024F010927702109276028091740290912B
:1044A00075028934910524F01092750210927402FD
:1044B00080917C0290917D0297FF04C0D0937D0291
:1044C000C0937C0280917A0290917B0297FF04C096
:1044D000D0937B02C0937A02809178029091790206
:1044E00097FF04C0D0937902C0937802809176023E
:1044F0009091770297FF04C0D0937702C093760221
:10450000809174029091750297FF04C0D093750258
:10451000C093740280E090E0892B09F4D5C90E9411
:104520000000D2C90E942C0FD9C990930101809339
:1045300000014CCAF7E1EF2E0BE023E147E067E111
:1045400083E00E947D179FEF491A590A50927D021D
:1045500040927C0269CAEAE2EE2E0BE02EE247E0CE
:104560006AE283E00E947D1780917C0290917D0237
:10457000019790937D0280937C02D2CA77E1E72E67
:104580000CE123E148E167E184E10E947D178FEFB0
:10459000681A780A70927B0260927A0263CA6AE2B1
:1045A000E62E0CE12EE248E16AE284E10E947D17EA
:1045B00080917A0290917B02019790937B02809385
:1045C0007A02AECA57E1E52E0DE223E149E267E146
:1045D00085E20E947D179FEF891A990A90927902CD
:1045E000809278025DCA4AE2E42E0DE22EE249E2B0
:1045F0006AE285E20E947D178091780290917902AB
:10460000019790937902809378028ACA37E1E32E6A
:104610000EE323E14AE367E186E30E947D178FEF13
:10462000A81AB80AB0927702A092760256CA2AE275
:10463000E22E0EE32EE24AE36AE286E30E947D1751
:104640008091760290917702019790937702809300
:10465000760266CA97E1E92E0FE423E14BE467E1B5
:1046600087E40E947D179FEFC91AD90AD09275027C
:10467000C09274024FCA8AE2E82E0FE42EE24BE4A5
:104680006AE287E40E947D1780917402909175021E
:104690000197909375028093740242CA1092DF04CE
:1046A0001092DE0481EA91E09093DD048093DC04B3
:1046B0000895DB018F939F930E94F124BF91AF91E6
:1046C000A29F800D911DA39F900DB29F900D11246C
:1046D0000895991B79E004C0991F961708F0961B5E
:1046E000881F7A95C9F78095089597FB072E16F4D1
:1046F000009407D077FD09D00E948F2307FC05D0D6
:104700003EF4909581959F4F0895709561957F4FE8
:104710000895EE0FFF1F0590F491E02D0994AA1B58
:10472000BB1B51E107C0AA1FBB1FA617B70710F09C
:10473000A61BB70B881F991F5A95A9F780959095CE
:10474000BC01CD0108950E94172488F09F5798F06E
:10475000B92F9927B751B0F0E1F0660F771F881F86
:10476000991F1AF0BA95C9F714C0B13091F00E94A0
:104770003124B1E008950C943124672F782F8827D5
:10478000B85F39F0B93FCCF3869577956795B395C7
:10479000D9F73EF490958095709561957F4F8F4F36
:1047A0009F4F0895E89409C097FB3EF4909580953B
:1047B000709561957F4F8F4F9F4F9923A9F0F92FE7
:1047C00096E9BB279395F695879577956795B79565
:1047D000F111F8CFFAF4BB0F11F460FF1BC06F5F4B
:1047E0007F4F8F4F9F4F16C0882311F096E911C05D
:1047F000772321F09EE8872F762F05C0662371F07E
:1048000096E8862F70E060E02AF09A95660F771F91
:10481000881FDAF7880F9695879597F9089557FDC1
:104820009058440F551F59F05F3F71F04795880F1E
:1048300097FB991F61F09F3F79F0879508951216B5
:1048400013061406551FF2CF4695F1DF08C0161661
:1048500017061806991FF1CF869571056105089412
:104860000895E894BB2766277727CB0197F9089529
:104870000E944B240C94BC240E94AE2438F00E9469
:10488000B52420F0952311F00C94A5240C94AB24AE
:1048900011240C9432240E940F2470F3959FC1F3CD
:1048A000950F50E0551F629FF001729FBB27F00DDE
:1048B000B11D639FAA27F00DB11DAA1F649F662733
:1048C000B00DA11D661F829F2227B00DA11D621F82
:1048D000739FB00DA11D621F839FA00D611D221F3C
:1048E000749F3327A00D611D231F849F600D211D20
:1048F000822F762F6A2F11249F5750409AF0F1F0A3
:1049000088234AF0EE0FFF1FBB1F661F771F881F0B
:1049100091505040A9F79E3F510580F00C94A5247A
:104920000C9432245F3FE4F3983ED4F38695779558
:104930006795B795F795E7959F5FC1F7FE2B880FB1
:10494000911D9695879597F9089597F99F6780E847
:1049500070E060E008959FEF80EC089500240A94D1
:104960001616170618060906089500240A9412164A
:104970001306140605060895092E0394000C11F47D
:10498000882352F0BB0F40F4BF2B11F460FF04C02A
:104990006F5F7F4F8F4F9F4F089581E090E0F894B5
:1049A0000C942D25052E97FB1EF400940E94E924FB
:1049B00057FD07D00E94FC2407FC03D04EF40C9452
:1049C000E92450954095309521953F4F4F4F5F4FCB
:1049D000089590958095709561957F4F8F4F9F4F6B
:1049E00008950E941E25A59F900DB49F900DA49F31
:1049F000800D911D11240895A1E21A2EAA1BBB1B44
:104A0000FD010DC0AA1FBB1FEE1FFF1FA217B3079A
:104A1000E407F50720F0A21BB30BE40BF50B661FB0
:104A2000771F881F991F1A9469F760957095809574
:104A300090959B01AC01BD01CF010895A29FB001EB
:104A4000B39FC001A39F700D811D1124911DB29FC2
:0E4A5000700D811D1124911D0895F894FFCF63
:104A5E0001000100001505800001000000DF0CBD03
:104A6E000C9B0C790C570C350C130CF10BCF0BADBA
:104A7E000B8B0B690B470B250B030BE10ABF0A9D32
:104A8E000A7B0A590A370A150AF309D109AF098DAB
:104A9E0009520930090E09EC08CA08A808860864EC
:104AAE000842082008FE07DC07BA07980776075465
:104ABE000732071007EE06CC06AA068806660644DD
:104ACE000622060006DE05BC059A05780556053455
:104ADE00051205F004CE04AC048A046804460424CE
:104AEE00040204E003AE038C035A033803000000F3
:104AFE0000360E2E0A4B41005341005441004E41E8
:104B0E00004841004D4100594100524100574100BB
:104B1E004741005A41004441004241005041004B80
:104B2E00490053484900434849004E49004D490049
:104B3E005249005749004749004A4900424900502E
:104B4E0049004B5500545355004E55004655004DE7
:104B5E0055005955005255004755005A55004255BB
:104B6E00005055005655004B450053450054450026
:104B7E004E45004845004D450052450057450047FB
:104B8E0045005A45004445004245005045004B4FF4
:104B9E0000534F00544F004E4F00484F004D4F00F2
:104BAE00594F00524F00574F00474F005A4F004287
:104BBE004F00444F00504F004E000D0A004C4F4125
:044BCE004445520008
:00000001FF
