:100000000C94040A0C942C0A0C942C0A0C942C0AC0
:100010000C942C0A0C942C0A0C942C0A0C942C0A88
:100020000C942C0A0C942C0A0C942C0A0C942F0C73
:100030000C942C0A0C942C0A0C942C0A0C942C0A68
:100040000C94DA0B0C942C0A0C942C0A0C942C0AA9
:100050000C942C0A0C942C0A0C942C0A0C942C0A48
:100060000C942C0A0C942C0AC41DC71DCA1DCD1D4E
:10007000D01DD31DD61DD91DDC1DDF1DE21DE51DC4
:10008000E81DEB1DEE1DF11DF41DF71DFA1DFD1DF4
:10009000001E031E061E091E0C1E0F1E121E151E1C
:1000A000181E1B1E1E1E211E241E271E2A1E2D1E4C
:1000B000301E331E361E391E3C1E3F1E421E451E7C
:1000C000481E4B1E4E1E511E541E571E5A1E5D1EAC
:1000D000601E631E661E691E6C1E6F1E721E751EDC
:1000E000781E7B1E7E1E811E841E871E8A1E8D1E0C
:1000F000901E931E961E991EAE1EB11EB41EB71EF4
:10010000BA1EBD1EC01EC31EC61EC91ECC1ECF1EDB
:10011000D21ED51ED81EDB1EDE1EE11EE41EE71E0B
:10012000EA1EED1EF01EF31EF61EF91EFC1EFF1E3B
:10013000021F051F081F0B1F0E1F111F141F171F63
:100140001A1F1D1F201F231F261F291F2C1F2F1F93
:10015000321F351F381F3B1F3E1F411F441F471FC3
:100160004A1F4D1F501F531F561F591F5C1F5F1FF3
:10017000621F651F681F6B1F6E1F711F741F771F23
:100180007A1F7D1F801F831F981F9B1F9E1FA11F0B
:10019000A41FA71FAA1FAD1FB01FB31FB61FB91FF3
:1001A000BC1FBF1FC21FC51FC81FCB1FCE1FD11F23
:1001B000D41FD71FDA1FDD1FE01FE31FE61FE91F53
:1001C000EC1FEF1FF21FF51FF81FFB1FFE1F012082
:1001D000042007200A200D201020132016201920AB
:1001E0001C201F202220252028202B202E203120DB
:1001F000342037203A203D2040204320462049200B
:100200004C204F205220552058205B205E2061203A
:10021000642067206A206D208220852088208B2022
:100220008E209120942097209A209D20A020A3200A
:10023000A620A920AC20AF20B220B520B820BB203A
:10024000BE20C120C420C720CA20CD20D020D3206A
:10025000D620D920DC20DF20E220E520E820EB209A
:10026000EE20F120F420F720FA20FD2000210321C8
:10027000062109210C210F211221152118211B21F2
:100280001E212121242127212A212D213021332122
:10029000362139213C213F214221452148214B2152
:1002A0004E215121542157216C216F21722175213A
:1002B00078217B217E218121842187218A218D2122
:1002C00090219321962199219C219F21A221A52152
:1002D000A821AB21AE21B121B421B721BA21BD2182
:1002E000C021C321C621C921CC21CF21D221D521B2
:1002F000D821DB21DE21E121E421E721EA21ED21E2
:10030000F021F321F621F921FC21FF21022205220F
:1003100008220B220E221122142217221A221D2239
:1003200020222322262229222C222F223222352269
:1003300038223B223E224122101000000180018021
:100340000300030006000C000C001F00198030C3DE
:1003500030C360C66066C06CC0381810000700600B
:100360000D80600D8067FF00C06000C06000C7FEA8
:1003700000C06000C06000C06000C06000C76000D6
:10038000C4F000C47C0066660063C0001010180052
:100390001818186C18300C000C780DC00F001C00D9
:1003A00030006000C000C000C00070001FF01810D6
:1003B00000020060090060048067FE00C06100C0A8
:1003C0006000C7FE00C06000C06000C06000C06088
:1003D00000C76000C4F000C47C0066660063C00013
:1003E000101000003FE000CC01B607180C00187E8A
:1003F0003FC0E30006000C000C000C000600038068
:1004000000F01010000C00363FD800000000000083
:100410000000000000000000C000C000C00060003C
:100420003FF8000010100600060007F0FF000C0067
:1004300018001F0031BC61E0C6C00CC018C03000FD
:10044000300018000FF8101000003FE000C00180DD
:10045000030006000C001FE038306018C00C000CD0
:100460000018001800700FC01010030003000300F4
:1004700003F80300030003000300030003007F00F0
:10048000C3C0C37063183E000000101018001800AD
:10049000D8003F80180018001800D8007F98300C52
:1004A000300C300C300C301818380FE010100000F1
:1004B000600067FE6030C030C030C7FFC030C03061
:1004C000C030C030C3B0C678C63E633361E01010A0
:1004D000000003E00DB8198C318661866183C30387
:1004E000C303C303C606C6066C0C383800E0000020
:1004F00010100C000C000C000C000600063C06E07E
:1005000007800E00180030006000600060003800B6
:100510000FF8101000001FF0006000C003800600FC
:100520000C3F1FE0F18003000600060006000300F8
:1005300001C00078101000003FE000000000000043
:100540000000000000000000C000C000C00060000B
:100550003FF800000000101006000600060007E645
:100560007F030601060007F80F0C36066603C60374
:10057000C603C606660C3C7810100000001C00364E
:1005800007360D9C18C030606030C018800C000623
:10059000000300010000000000001010000000082F
:1005A000002407120D8818C030606030C018800C1D
:1005B0000006000300010000000000001010000011
:1005C00007FEFCE00180030C063606180C000C0048
:1005D0000C0006000600030001C0007800001010A7
:1005E0000006001B306C3060306033FEFE6030600F
:1005F0003060306033C030003000300018000FF839
:10060000101000060033603C60366030C7FFC03019
:10061000C030C030C030C030C030C03060606060BA
:1006200061C0101000001FE000C00180030007E05F
:100630001C30301867180DB007E00E00183C2C660F
:1006400066C3C38F10101800180018001CF0FB9828
:100650001E0C1C0C380C380C5818D818D818981BBD
:10066000181B180E180010100180618061806180D5
:1006700067F07D9C31867306DB03DE038E038C03FB
:100680009606F006001C00F01010000000000000AC
:10069000038006C00C6018303018600CC0060003E0
:1006A00000010000000000000000101018001800F9
:1006B00018001E7CFDC61B031E031C031803380311
:1006C000380358FBD987198618CB187B1010000007
:1006D00003FFFE7000C00180030003000600060057
:1006E000060003000300018000E0003C0000101041
:1006F00000180C180C180C180CFFFF980C180C188C
:100700000C180CF00C000C000C00060003FE00009E
:1007100010100018601860186018C7FFC018C018C3
:10072000C018C018C018C018C018603060306060B1
:1007300001C010100E0003C00000000003F03E6076
:1007400000C00180030007800CC018C030C060C02A
:10075000C0C0007F10103C0C07C6000300180FCC6F
:10076000F86600300030003000300030006000607B
:1007700000C003801E00101000000F0001DC0036D6
:100780000036061C060036003318630CC18680C391
:1007900000C300C039800F00101000000F0001C41A
:1007A000000600330618060C16003318630CC186C9
:1007B00080C300C300C039800F001010030C033643
:1007C0000318FFFC030003001B00370063006300F5
:1007D00037001B00060006000C003800101000C097
:1007E00001800318060C0C6018307000C000C000B7
:1007F000700018000E000300018000C0006010109F
:1008000000003FF0006000C00180030006001FE010
:1008100038306018C00C000C0F0C199818B00FE09D
:1008200010100180618063F06EDC98C6B0C6B0C362
:10083000E0C3E0C3ECC6CCC6C6DC63F06180030055
:100840000E0010100C000C000C00FFC60C030C0175
:100850003C006C00CC00CC00D806780318031803C9
:100860000C0607FC1010078000E0000000000300E9
:1008700003000300318C318660C3C0618061006079
:100880001CC007800000101001800180C180C3F0EF
:10089000CD9C598673066303F303B60396039C034A
:1008A000CC7BF6CEF0C6007B10100000000001F8F3
:1008B0000F0EF80600030003000300030003000608
:1008C000000C007807C000000000101000C000C03D
:1008D00000C0FFFF00C000C006C00DC018C018C097
:1008E0000DC006C00180018003000E00101000C082
:1008F0000180030006000C0018007000C000C0005A
:10090000700018000E000300018000C0006010108D
:100910003C0007C0000000000FC0F860003000304D
:100920000030003000300060006000C003801E0016
:100930001010000E001B0F1BF60E0C18181C181CB4
:10094000301E301B6018601860306030306038C076
:100950000F8018130007000001800F0C00F607003D
:100960000C1900181C00181C00301E00301B006001
:10097000180060180060300060300030600038C03F
:10098000000F80000000000000000000001010C0F8
:1009900000C060C1B0C0C0C000C000C000C000C086
:1009A00000C018C018C030C06061C03F0000001017
:1009B00010030C03360198FFF0018000BCFFE0003B
:1009C0006000603FB06078C018C000600038000F61
:1009D000F01010000003E03EC000C0018001800361
:1009E000F80D8C1B0633036603C603CCF3D996714E
:1009F0008C00F8101000C0C0C0C0C0C0C0C0C0C0D3
:100A0000C0C0C0D8C0D8C0F0C060C00180018003A1
:100A10000006001C00101000000F8079800180018A
:100A200080030C030C1FEC763CC60F8C0D8C0C98CD
:100A300018B018E03000E0101000000F18F6180C85
:100A400018181C181C301E301B60186018603060AD
:100A500030306038C00F800000101060006000610E
:100A6000FEC000C000C000C000C000C000C180C304
:100A700000C300618060FF600000001010060006E7
:100A800000067CFFC006000C000E001FF01E1C3884
:100A90000C300600060006000C003807E0101000BD
:100AA00000C000C000C000C000C000C000C000C046
:100AB00000C000C018C018C030C06061C03F001046
:100AC00010030003000178FFC0018000BCFFE000BC
:100AD0006000603FB06078C018C000600038000F50
:100AE000F01010C000C000C000C018C018C00CC07A
:100AF0000CC006C006C006C60666006C00380000C2
:100B00000000001010000E607B607B606EC060CF44
:100B1000FEC060C060C060C060C060C760C4F0C498
:100B200078666C63C0101000066033603C6036C0AD
:100B300030CFFEC030C030C030C030C030C7B0C4CD
:100B400078C43C663663E01010180C18361F98FC09
:100B5000003000300031FC600060006000C000C365
:100B600000C300830081FE00001010030C03360157
:100B700098FFF0018000C000C000601FB070786076
:100B800018C000C000600038000FE010100C060C08
:100B9000030C0C0C060F98FCCC1866186318633015
:100BA0006130613060606060C0CCC0C78010100CE4
:100BB000000C000C000F00FE780DCE0F030E031C7E
:100BC000011C012C016C03CC030C060C1C0CF01056
:100BD000103C000780000000006000600067C0DC7F
:100BE00070F030E018C01800180030007001C01F0D
:100BF00000101000C030C030C030F81BCE3E06D808
:100C0000030C030C060C0E06780600060003000316
:100C10000003001010060006000600FFF80600069C
:100C2000000600FFF0060006000600F6008F0087B1
:100C3000C0C6707C0010100000601860186018CFEB
:100C4000FFC018C018C018C018C018C018C3D8C634
:100C50003CC61E631B61F010100C000C000F80FCE2
:100C60003C180718003000301860186018C018C30E
:100C7000F8061C061E031B01F0101000000C000CEF
:100C8000000FC0FE001800180018FE3000300030C1
:100C900000600061806180C180C0FF10100300030C
:100CA000000178FFC0018000C000C000601FB0706C
:100CB000786018C000C000600038000FE010100C11
:100CC000000C000C000C180F8CFCC618631863187D
:100CD00061306130603060606060C0CCC0C780103F
:100CE000100600060006F87F800600066007F81E62
:100CF0006E366666C366C3C783C7036E063E1C00B6
:100D0000700101FF030101F703050D010D050089C5
:100D1000300802380249786814000005003801687C
:100D20000100001753440016137800161314001521
:100D300010200015201000540A03E181867F3E1820
:100D40006D830F0F0E0183866033186DC3198F18E2
:100D500003C38E6033186DE330CF1803C39E603633
:100D600030CDE360CF3006C79E7E3E30CDB360CF3E
:100D7000300CC6F6603330D9B660CF33CFCCF660D6
:100D800061B0DB1E60CF30D86CE6C061B0DB1E61A5
:100D90008F19986CC6C063B19B0E330F0FB078C625
:100DA000FF7E1F1B061E0F05077F4141417F3E5BF3
:100DB0004F5B3E3E6B4F6B3E183C783C18183C7EB8
:100DC0003C181C577D571C1C5E7F5E1C007E4343F5
:100DD0007E007E73737E007E7F7F7E7F4141417FF8
:100DE00030483A060E06297929067F4141417F6045
:100DF000703F02042A1C361C2A7F3E1C0800000893
:100E00001C3E7F14227F22143C3C3C7EFF18423C57
:100E1000817E3E6375633E3E616B633E3E636B6BFA
:100E20003E04027F020410207F201008082A1C08BC
:100E3000081C2A0808143E55412263756975631021
:100E4000181C1810040C1C0C04000000000000000A
:100E50005F00000007000700147F147F14042A7F3E
:100E60002A102313086462364956205000080703ED
:100E700000001C2241000041221C002A1C3E1C2AAA
:100E800008083E080800E06000000808080808009C
:100E90006060000060100804033E5149453E004276
:100EA0007F400062514949462141494D331814128F
:100EB0007F1027454545393C4A49493041211109B0
:100EC000073649494936064949291E0000240000D1
:100ED000008064000008142241001414141414004B
:100EE0004122140802015909063E415D594E7C1207
:100EF00011127C7F494949363E414141227F41419F
:100F0000221C7F494949417F090909013E4141515C
:100F1000327F0808087F00417F41002041413F01A6
:100F20007F081422417F404040407F020C027F7FB7
:100F30000204087F3E4141413E7F090909063E41C6
:100F40006141BE7F09192946264949493201017F7D
:100F500001013F4040403F1F2040201F3F4038409C
:100F60003F63140814630304780403615149454343
:100F7000007F41410003040810600041417F0004EC
:100F80000201020480808080800003070800205452
:100F90005478407F284444383844444428384444F2
:100FA000287F3854545418087E09090218A4A49CB8
:100FB000787F0804047800447D4000006080847DD0
:100FC0007F1010284400417F40007C047804787C26
:100FD000080404783844444438FC1824241818249D
:100FE0002418FC7C080404080854545420043F448A
:100FF00044203C4040207C1C2040201C3C402040A1
:101000003C44281028444C9090907C4464544C44B8
:10101000000836410000007F00000041360800183B
:101020000408100C7F4141417F482400000000006B
:1010300000000000FFFFFFFFFFFFFFFE0080000039
:10104000000000000200866DE3C78F1CCF020086FF
:1010500061B66C19BED98200866DB66C19B6D9829C
:101060000087EDE7EDDFB6DF8200866DB66CD9B69E
:10107000D98200866DB667D9B399820080000000DE
:101080000000000200FFFFFFFFFFFFFFFE00000067
:101090000000000000000000000000000000000050
:1010A00000000F000E030600000E0007800E300E39
:1010B00000007E3001800C0C0E00000C3000001C83
:1010C000707F1E000C3010007F980C06001838301E
:1010D000007F9C080000303C3000118E18700030FA
:1010E0003E33F0318E30700030323C1831867070F3
:1010F000003030380C718073F0003070300C61803B
:10110000677800386000386F80067E001FE007F0C7
:10111000CF800660000FC007C0000007E00000009D
:1011200000000000000000000001E00000000000DE
:101130000000061800000000007676C4C800000019
:1011400000005564892400001FFF80774249E409AC
:1011500012F334804576C52815555AD6800000060E
:101160001814E2593680000001E000001FFF8000E3
:1011700000000000240027002A00000000002500D5
:1011800028002B00450068010000F6E8DBCFC3B85B
:10119000AEA49B928A827B746E68625C57524E4901
:1011A00045413E3A3734312E2C29272523210A0A7E
:1011B000153A49676E6F7265006D560A0A504C45C4
:1011C000415345205455524E204F464620004C4F27
:1011D00057204241545445525921200003053F21D4
:1011E0003F1208120A100A0E1C0E0C1E0C141A14C0
:1011F000161F161E131E1E1B1E1E1F1E3F213F3ACA
:101200002F3A173D173F213F181F02040A041F0EF3
:1012100004040E1F0A1F0A0E0E1F04110E2E252E87
:101220002F2A2E262929021F02081F08150E040442
:101230000E150E15151B151B040604040C040000E6
:10124000000017000300031F0A1F16371A190413A2
:101250000A153A000300000E11110E000A040A04D8
:101260000E040030000404040010001804031F11D1
:101270001F121F101D151711151F07041F17151D0D
:101280001F151D01011F1F151F17151F000A000044
:101290003200040A110A0A0A110A040115020E1189
:1012A000171E051E1F150A0E110A1F110E1F1511FC
:1012B0001F05010E111D1F041F111F1108100F1F04
:1012C000041B1F10101F061F1E040F0E110E1F09F6
:1012D000060E112E1F051A121509011F011F101FDE
:1012E0000F180F1F0C1F1B041B031C0319151300E1
:1012F0001F11030418111F00020102202020000109
:10130000020C121E1F120C0C12120C121F0C1A14BB
:10131000041E05242A1E1F021C141D1020201D1F40
:101320000814111F101E041E1E021C0C120C3E0A73
:10133000040C123E1E040214160A020F120E101E96
:101340000E100E1E081E120C1226281E322A26040B
:101350001E21001F00211E040102013F213F172B07
:10136000152010204C4F4144455200172B162013D6
:1013700014000A4E6F2053442063617264206F7220
:101380000A6E6F204C4F414445522E4845580A0A78
:10139000153A45786974001D20466C617368696E62
:1013A000670A20206C6F616465722E2E2E0A0A4433
:1013B0004F4E2754205455524E204F464621000090
:1013C000000000230026002900040404040404048F
:1013D00004020202020202030303030303010204E4
:1013E00008102040800102040810200102040810A7
:1013F00020000000080002010000030407000000B4
:10140000000000000000D42311241FBECFEFD8E05D
:10141000DEBFCDBF12E0A0E0B1E0E2E3FCE402C039
:1014200005900D92A437B107D9F725E0A4E7B2E003
:1014300001C01D92A731B207E1F71AE0C4E0DAE07B
:1014400004C02197FE010E940F24C330D107C9F7C1
:101450000E943E1C0C9417260C940000CF92DF9241
:10146000EF92FF920F931F93CF93DF936C017A015A
:101470008B01C0E0D0E0CE15DF0589F0D8016D9179
:101480008D01D601ED91FC910190F081E02DC60116
:101490000995892B11F47E0102C02196ECCFC7017A
:1014A000DF91CF911F910F91FF90EF90DF90CF9040
:1014B00008950E9453256115710579F0FB01019093
:1014C0000020E9F73197AF01461B570BDC01ED9186
:1014D000FC910280F381E02D099480E090E0089572
:1014E000833081F028F4813099F08230A1F00895A2
:1014F0008730A9F08830B9F08430D1F48091800031
:101500008F7D03C0809180008F7780938000089545
:1015100084B58F7702C084B58F7D84BD0895809196
:10152000B0008F7703C08091B0008F7D8093B000B2
:1015300008951F93CF93DF93282F30E0F901EF50E8
:10154000FC4E8491F901E352FC4ED491F901E7532A
:10155000FC4EC491CC23C9F0162F81110E94700A51
:10156000EC2FF0E0EE0FFF1FE658FE4EA591B49170
:101570008FB7F894111105C09C91ED2FE095E923E8
:1015800002C0EC91ED2BEC938FBFDF91CF911F91B7
:101590000895CF93DF9390E0FC01E352FC4E249139
:1015A000FC01E753FC4E8491882361F190E0880FA1
:1015B000991FFC01E059FE4EC591D491FC01E658FB
:1015C000FE4EA591B491611109C09FB7F89488812E
:1015D000209582238883EC912E230BC0623061F426
:1015E0009FB7F8943881822F809583238883EC916C
:1015F0002E2B2C939FBF06C08FB7F894E8812E2B1B
:1016000028838FBFDF91CF9108951F93CF93DF93EE
:10161000182FEB0161E00E94C90A209711F460E0E5
:1016200004C0CF3FD10539F461E0812FDF91CF9124
:101630001F910C94990AE12FF0E0EF50FC4EE491D9
:10164000E330F9F048F4E130B9F0E230A1F584B5C7
:10165000806284BDC8BD34C0E730E9F0E83019F1DC
:10166000E43049F580918000806280938000D093BF
:101670008B00C0938A0024C084B5806884BDC7BD38
:101680001FC080918000806880938000D093890083
:10169000C093880015C08091B00080688093B0002E
:1016A000C093B3000DC08091B00080628093B00001
:1016B000C093B40005C0C038D1050CF0B5CFAFCF92
:1016C000DF91CF911F9108958E3008F08E50877072
:1016D000806480937C0080917A00806480937A009B
:1016E00080917A0086FDFCCF80917800209179006E
:1016F00090E0922B08953FB7F894809183029091E7
:101700008402A0918502B091860226B5A89B05C0EF
:101710002F3F19F00196A11DB11D3FBFBA2FA92F70
:10172000982F8827820F911DA11DB11DBC01CD01ED
:1017300042E0660F771F881F991F4A95D1F70895D9
:101740008F929F92AF92BF92CF92DF92EF92FF92D1
:101750006B017C010E947B0B4B015C01C114D10425
:10176000E104F104F1F00E947B0BDC01CB0188194C
:101770009909AA09BB09883E9340A105B10570F3F8
:1017800021E0C21AD108E108F10888EE880E83E052
:10179000981EA11CB11CC114D104E104F10419F775
:1017A000DDCFFF90EF90DF90CF90BF90AF909F90F4
:1017B0008F9008951F920F920FB60F9211242F93BE
:1017C0003F938F939F93AF93BF93809189029091A2
:1017D0008A02A0918B02B0918C023091820223E0A8
:1017E000230F2D3720F40196A11DB11D05C026E859
:1017F000230F0296A11DB11D2093820280938902BE
:1018000090938A02A0938B02B0938C028091830202
:1018100090918402A0918502B09186020196A11D4B
:10182000B11D8093830290938402A0938502B093AC
:101830008602BF91AF919F918F913F912F910F9011
:101840000FBE0F901F90189580918D04882319F07A
:1018500080918F0401C080E08093B40008951F92AE
:101860000F920FB60F9211242F933F934F935F93D4
:101870006F937F938F939F93AF93BF93EF93FF9358
:1018800060918E04662321F1809181028F5F8093A5
:101890008102909187028917D8F090918D0481E0A0
:1018A000892780938D041092810280918802882379
:1018B00069F08091020193E4899F802D1124895B56
:1018C000809302010E94EF2390938F040E94240CC6
:1018D000FF91EF91BF91AF919F918F917F916F9108
:1018E0005F914F913F912F910F900FBE0F901F90DE
:1018F00018954F925F926F927F928F929F92AF92C4
:10190000BF92CF92DF92EF92FF920F931F93CF93EC
:10191000DF93F901C49031965491EC0108A164352C
:101920000CF018C10C2C000CDD08A62F062E000CA4
:10193000BB0B7D01EC0CFD1C1E141F040CF00AC136
:1019400040330CF007C1A52E842E042E000C9908FC
:10195000F401E50FF11D57FDFA951E161F060CF058
:10196000F9C02E5F3F4FE6012796D7FD279673E01B
:10197000D595C7957A95E1F747FF0AC0A52EA40E25
:10198000C89DA001C99D500D1124241B350B40E0BA
:10199000EA2D0A2C000CFF0BE40FF11D47FDFA9510
:1019A000F1971CF050E3A52EA41A67FD60E0F70143
:1019B000E535F10514F0E4E5F0E07E2FFC01D48478
:1019C000D426862F062E000C990BFC01EA1BFB0B7C
:1019D000DF017F01F7E0EF22FF24E0E8F0E002C042
:1019E000F595E795EA94E2F71E2FB7FD179653E0B9
:1019F000B595A7955A95E1F72A0F3B1FE42FE7709D
:101A000051E001C0550FEA95EAF745954595459592
:101A1000B4E54B02800D911D112483579D4FC12CBD
:101A20000A2C000CBB08992493942E015524EC2D0C
:101A3000F0E0EA15FB050CF08DC0F901449101308E
:101A4000E1F47C01A12F862E881AB82DBE0DB717A0
:101A500008F077C0B42FBA2321F0E701B881B52B85
:101A6000B883B0E0B595A795109719F431964491D5
:101A7000A0E8DFEFED1AFD0AE8CF01111FC0752EB7
:101A800070947C01A12FF901862E881AB82DBE0D05
:101A9000B71708F056C0B42FBA2321F0E701B88178
:101AA000B721B883B0E0B595A795109719F4319692
:101AB0004491A0E8DFEFED1AFD0AE8CF033031F0E2
:101AC0007C01A12FF901862E881A37C0752E7094DB
:101AD000862E7C01A12FF9018716D8F4B42FBA23E2
:101AE00059F0E701B881682C6D2460FE02C0B52B67
:101AF00002C0B721E701B883B0E0B595A79510976C
:101B000019F431964491A0E88394DFEFED1AFD0AB1
:101B1000E3CFD92416C0B42FBA2321F0E701B8814E
:101B2000B527B883B0E0B595A795109719F431960D
:101B30004491A0E8DFEFED1AFD0AB82DBE0DB717EE
:101B400050F3550F19F48C5A9F4F51E0C394240D54
:101B5000351D6DCFDF91CF911F910F91FF90EF90C9
:101B6000DF90CF90BF90AF909F908F907F906F90BD
:101B70005F904F900895FC01643508F053C04033E6
:101B800008F050C090A1742F759575957595262F06
:101B9000062E000C330B542F57709230A1F4F9012C
:101BA000E357FD4F84E57802E00DF11D112480819B
:101BB00090E0052E02C0959587950A94E2F78095EE
:101BC000982F91700AC0933041F484858170462724
:101BD00040954170841303C014C0911112C084E574
:101BE0007802200D311D1124F901E357FD4F81E0EA
:101BF00090E001C0880F5A95EAF78095908189237B
:101C000010C084E57802200D311D1124F901E3573D
:101C1000FD4F81E090E001C0880F5A95EAF790816E
:101C2000892B80830895DF92EF92FF920F931F9389
:101C3000CF93DF931F92CDB7DEB78C01D62EF42E53
:101C4000E12CE21654F46E2D6D0D4F2DC801298341
:101C50000E94BB0DE3942981F4CF0F90DF91CF91C7
:101C60001F910F91FF90EF90DF9008952F923F9278
:101C70004F925F926F927F928F929F92AF92BF929C
:101C8000CF92DF92EF92FF920F931F93CF93DF9348
:101C9000EC016A3019F42D819885C3C06D3009F4C8
:101CA000C6C038847A84D98448A083E58D150CF4A5
:101CB000A1C08FE287150CF49DC08C8190E0019744
:101CC000389E9001399E300D1124C9018D0D911D52
:101CD000D7FC9A95181619060CF08CC08D81839D3F
:101CE000C0011124870D911D77FC9A9518161906CD
:101CF0000CF080C05D2CCD2CE62EF12CA32C032CF7
:101D0000000CBB08EC2DED190E2E000CFF0B8C8186
:101D100090E0E817F9070CF06CC00197E817F90795
:101D200079F0E89E9001E99E300DF89E300D112467
:101D3000E20FF31F8E8D9F8DE80FF91F149101C0E4
:101D400010E0072D672C262D2719022E000C330BCF
:101D50008D8190E0281739070CF048C010FF1EC095
:101D600081E0381206C0462D6C2DCE010E94BB0DBD
:101D700039C0202E4501800E911C07FD9A94822DBA
:101D8000022C000C990B8815990564F5232D422D22
:101D9000652DCE010E94130E2394F1CF89A198A145
:101DA000891701F188A381E0381206C0462D6C2DF9
:101DB000CE010E94BB0D15C0202E4501800E911C46
:101DC00007FD9A94822D022C000C990B8815990519
:101DD00044F4232D422D652DCE010E94130E239431
:101DE000F1CF48A216956394030DADCFC394530C65
:101DF00089CF48A228853C818985329F800D112496
:101E000089879F81992399F0082E000C990B44E54E
:101E100050E0239F401951091124481759073CF4F9
:101E20009D818A85299F800D11248A87198681E0EA
:101E300090E0DF91CF911F910F91FF90EF90DF9095
:101E4000CF90BF90AF909F908F907F906F905F905A
:101E50004F903F902F9008958F929F92AF92BF9294
:101E6000CF92DF92EF92FF920F931F93CF93DF9366
:101E700082E380930F0581E090E0A0E0B0E08093E2
:101E80000B0590930C05A0930D05B0930E058FEFF5
:101E900080930005E0E8F7E7259134912130304C3C
:101EA00009F049C0E6E9F7E7E491E093E904E7E9DE
:101EB000F7E7E491E0939404E8E9F7E7E491E0932D
:101EC0009504E9E9F7E785919491909397048093BD
:101ED0009604EBE9F7E785919491909399048093A8
:101EE000980487E08093BB04EEE9F7E7E491E09380
:101EF000BA04EFE9F7E7E491E0930005E0EAF7E7D9
:101F0000859194919093AD048093AC04E2EAF7E755
:101F1000859194919093AF048093AE04E4EAF7E73F
:101F2000859194919093B1048093B004E6EAF7E729
:101F3000859194912CC09CE39093E90410929404B1
:101F40008093950480E293E09093970480939604A5
:101F500084ED93E0909399048093980487E08093B4
:101F6000BB048093BA048CEA9DE09093AD04809307
:101F7000AC048EED9DE09093AF048093AE0484E7B3
:101F80009EE09093B1048093B0048CE39FE0909323
:101F9000B3048093B204C1E0C09390046FEF70E08B
:101FA00085E00E94050B88E080939A0489E0809385
:101FB0009B0487E080939C0486E080939D04D4E09A
:101FC000D0939E0482E080939F0481E18093A004DB
:101FD0000E9416178CE39FE09093AB048093AA04B1
:101FE000D093A904C093B4048BE08093EC048DE0FB
:101FF0008093EB0480E18093ED048EE08093EF0406
:102000008FE08093EE04C093E604C093FE04109228
:10201000FF04C093E504ECEDF1E1E491EF5FE093A0
:10202000E204EDEDF1E1E491EF5FE093E3048EED86
:1020300091E19093FD048093FC04CFB7F8948091D4
:102040008002811127C0E3EDF3E18491E7EEF3E133
:102050009491E82FF0E0EE0FFF1FE059FE4EA5919E
:10206000B491EC91E92321F461E08AE00E94990A9D
:1020700061E08AE00E94C90A8CB580618CBD8CB594
:1020800080648CBD61E08DE00E94C90A61E08BE054
:102090000E94C90A809180028F5F80938002CFBF27
:1020A0008CB58F7D8CBD8CB58C7F81608CBD8DB5E2
:1020B00081608DBD8CB58C608CBD61E08091EC043D
:1020C0000E94C90A61E08091EB040E94C90A61E0A4
:1020D0008091ED040E94C90A8091EF0418161CF447
:1020E00061E00E94C90A8091EE0418161CF461E0B8
:1020F0000E94C90A8091EF04181674F460E00E94EF
:10210000990A6AE070E080E090E00E94A00B61E034
:102110008091EF040E94990A8091EB04082E000C34
:10212000990BFC01E753FC4EE491F0E0EE0FFF1F2A
:10213000E658FE4E259134913093F3042093F20437
:10214000FC01E352FC4EE491E093F9048091EC042D
:10215000082E000C990BFC01E753FC4EE491F0E0D3
:10216000EE0FFF1FE658FE4E259134913093F10497
:102170002093F004FC01E352FC4EE491E093F80458
:102180008091EE04082E000C990BFC01E753FC4EE5
:10219000E491F0E0EE0FFF1FE658FE4E25913491DA
:1021A0003093F5042093F404FC01E352FC4EE491D7
:1021B000E093FA048091ED04082E000C990BFC01C9
:1021C000E753FC4EE491F0E0EE0FFF1FE658FE4EA1
:1021D000259134913093F7042093F604FC01E352E7
:1021E000FC4EE491E093FB0481E20E946A1784E1D3
:1021F0000E946A178091E90487FF03C08FE78093EC
:10220000E9048091E90480680E946A1780E20E94D4
:102210006A178CE00E946A170E948917C1E0C09378
:10222000B90484E08093DD0489E09DE09093C504C7
:102230008093C40460E080E00E94991861E070E03F
:1022400083E00E94050B8091B100887F81608093BC
:10225000B100F894109280001092810010928500D5
:102260001092840088E191E0909389008093880027
:1022700080918100886080938100809181008160DD
:102280008093810080916F00826080936F007894CA
:102290000E94131A8091A604813019F41092BA0496
:1022A0001CC08091A9048823C9F380E00E94FF1616
:1022B0008DE09DE09093C3048093C2041092C80403
:1022C0001092C704C093B60489E08093CB041092A7
:1022D000CE041092D0041092D2048091000588237D
:1022E00009F4E9C081E08093E6041092E5041092BD
:1022F000E4041092A8048093FE048093FF04CFE6C8
:10230000D1E18CE0F82E04E811E1EE24E39499E0A9
:10231000D92E0E9484128823E1F3FE018491882340
:1023200019F0C090E30401C0C12C27E33DE040E078
:1023300060E08EED94E00E94790C4CE04C0D29E2B7
:1023400030E160E08EED94E00E94790C1092E70499
:10235000F092E8048FE691E10E94C9178091E204AF
:10236000982F990F890F81958D5A8093E70480915A
:10237000E304982F990F890F8195835D8093E8047A
:102380008091010584FF03C083E39DE002C08FE2DA
:102390009DE00E94EA178091E204982F990F890F1F
:1023A00081958D5A8093E7048091E8048F5F809334
:1023B000E8048091BA04882319F08BE29DE002C002
:1023C00087E29DE00E94EA178091E204982F990F1E
:1023D000890F81958D5A8093E7048091E8048F5F7F
:1023E0008093E80483E29DE00E94EA178091A604AE
:1023F000813039F58091BA048F5F6091BB0487FD0D
:1024000009C0082E000C990B70E06F5F7F4F0E948F
:10241000FB23682F6093BA0480E00E94FF1610939C
:10242000C3040093C2041092C8041092C704E0923F
:10243000B604D092CB041092CE041092D004109225
:10244000D2048091A5048130B9F080910005482F15
:1024500050E060E070E08090010590900205A0904F
:102460000305B090040584169506A606B70608F481
:1024700043C08F3F09F440C08FEF8093000580E098
:102480000E94FF1680E00E94FF168BE19DE0909372
:10249000C3048093C2041092C8041092C70481E060
:1024A0008093B60489E08093CB041092CE041092FE
:1024B000D0041092D204E7EAFDE0E491EF5FE093EC
:1024C000E204E8EAFDE0E491EF5FE093E30489EAE7
:1024D0009DE09093FD048093FC041092A804DF918A
:1024E000CF911F910F91FF90EF90DF90CF90BF9011
:1024F000AF909F908F9008958091A704813009F04C
:1025000008CF0E94FA1705CF4F925F926F927F9289
:102510008F929F92AF92BF92CF92DF92EF92FF92F3
:102520000F931F93CF93DF9300D000D01F92CDB7AE
:10253000DEB7409110055091110560911205709120
:1025400013052FB7F8948091890290918A02A09187
:102550008B02B0918C022FBF481B590B6A0B7B0B6F
:1025600080910F0590E0A0E0B0E000910B05109184
:102570000C0520910D0530910E0584179507A607CF
:10258000B70730F4011511052105310509F040C3E5
:10259000012B022B032B09F039C38091A704815032
:1025A0008E3FC0F58091A6048130C9F58091BA04B0
:1025B0008F5F6091BB0487FD09C0082E000C990B4A
:1025C00070E06F5F7F4F0E94FB23682F6093BA0417
:1025D0008BE693E1909315058093140588E480932E
:1025E000160580E00E94FF1684E891E19093C304F1
:1025F0008093C2041092C8041092C70481E08093B3
:10260000B60489E08093CB041092CE041092D004DB
:102610001092D2048091A70481508E3F70F4809173
:10262000A504813009F0A0C38EE593E190931505D0
:102630008093140588E48093160580E00E942F188B
:102640008091B604882309F4ABC08091CA0481113B
:10265000A7C08091C2049091C304E091C704F09197
:10266000C804EE0FFF1FE80FF91F45915491411563
:102670005105F1F42091C604222331F01092C804D0
:102680001092C704FC0112C01092B6048091B504E8
:10269000882341F080E00E942F18E091C704F09158
:1026A000C8042DC080E00E94EA167AC0459154917A
:1026B0009A01369527953695279540FF51C0CA0156
:1026C000B6E096958795BA95E1F78F71952F969517
:1026D0009695969590512F70223071F1F8F4211152
:1026E00017C08B3008F08AE08093CB04E091C704D8
:1026F000F091C8043196F093C804E093C704EE0F3C
:10270000FF1F8091C2049091C304E80FF91FCECF40
:10271000213061F760E00E949918E8CF2330B1F0D2
:10272000243021F72091B904829F802D11248093B9
:10273000D2049093D304DACF2091B904829F802DE4
:1027400011248093CE049093CF04D0CF2091B9046C
:10275000829F802D11248093D0049093D104C6CF02
:102760002F732093C9048091B904859F802D112473
:102770008093CA041092DA041092D9041092D804FB
:1027800081E08093CC0480938D041092CD048091DD
:10279000C7049091C80401969093C8048093C7041D
:1027A0008091CC04882309F4EEC08091CA04811181
:1027B00003C00E94EA16E7C081508093CA0480914A
:1027C000DA04811146C02091D8043091D9042F5FDA
:1027D0003F4FC901880F991FE091D404F091D504AF
:1027E000E80FF91F65917491862F87708093DB0441
:1027F000AB0163E0569547956A95E1F7CA01969556
:102800008795972F969596959093DC048F7390916A
:10281000B904899F802D11248093DA04417040937C
:1028200088023093D9042093D8048091D60490E094
:102830002817390770F02091D704222339F0821B22
:1028400091099093D9048093D80403C080E00E943A
:10285000EA168091DA0481508093DA048091CD04E5
:1028600021E0280F2093CD044091C9043091DC046D
:10287000340F8091C104380F3093B7046091D004B5
:10288000662371F070E0822F022E000C990B0E94DB
:10289000FB238091D104869F300D11243093B7041F
:1028A0008091B70490E0849664E270E00E94FB237C
:1028B0008093B7043091CB043093B8046091CE0478
:1028C000662381F0062E000C770B822F022E000C5F
:1028D000990B0E94FB238091CF04869F300D112419
:1028E0003093B8046091D2046623A1F0822F220FA6
:1028F000990B70E00E94FB23CB0162E070E00E9424
:10290000FB232091D3049091B804289F900D1124AB
:102910009093B8048091B8044F3341F08A300CF0A2
:1029200089E087FD80E08093B80402C01092B8046B
:10293000F894E091B704F0E0E657FE4EE491E0939E
:1029400087023091B8042091DD04320390011124F4
:102950004091DB044203C001439F900D112400907D
:10296000BA0402C0880F991F0A94E2F797FF02C0C9
:1029700081589F4F880F892F881F990B80938E0451
:1029800080938F04789480911605882309F493C06E
:102990008C3020F49CE0D92ED81A01C0D12C81E0D3
:1029A0008093E6041092FE041092FF041091E30459
:1029B00083E0810F3D2D311B335D032FE82E880FFF
:1029C000FF08E30EF11C37FDFA94802F002E000C57
:1029D000990B8E159F055CF42EE4402F63E08EED7D
:1029E00094E03D830E94130E0F5F3D81EECF1450A3
:1029F00003E0030F212F41E0602F80E50E946A1958
:102A0000212F42E0602F83E00E946A1981E08093C9
:102A1000FE048093FF040091E3048D2D801B3DE2B2
:102A2000F32EF80E2EE44F2D63E08EED94E00E941D
:102A3000130E13E0100F1F0D4FEF410F2EE463E054
:102A40008EED94E00E94130E035033E0F30E402FFE
:102A50006F2D80E00E945219402F6F2D83E50E9458
:102A6000521941E06F2D83E00E94D41842E06F2D8F
:102A700080E50E94D418145044E0612F80E50E9444
:102A8000D41848E0612F83E00E94D41884E080933A
:102A9000E7048091E304D81A8D2D815D8093E804CA
:102AA00080911405909115050E94C9178091160513
:102AB0008150809316058091AC049091AD04892BD0
:102AC00009F47CC011E01093FE041092FF04909171
:102AD000E20485E5891B8093E7041092E804809165
:102AE000A904813009F44DC030F09091A8048530DC
:102AF00008F05FC05AC080E00E94FF161093E60401
:102B0000ECEDF1E1E491EF5FE093E204EDEDF1E152
:102B1000E491EF5FE093E3048EED91E19093FD0487
:102B20008093FC041092AD041092AC041092E40463
:102B300018EA0E9484128823E1F38EEC91E10E944E
:102B4000C9176091AA047091AB0480E090E04AE05C
:102B50000E94C51989EB91E10E94C917612F629506
:102B60006F7070E080E090E04AE00E94C5198EEA44
:102B700091E10E94C9178091A504813009F0FAC043
:102B80001DC08091010590910205A0910305B091AF
:102B900004058F709927AA27BB270897A105B105BF
:102BA00010F487E009C088E707C0992339F08B5FEC
:102BB00003C0992319F08FE20E94081A0E94891716
:102BC0008091E40481110EC088EF91E0EDE8F2E01D
:102BD000DF019C011D9221503040E1F71092E70483
:102BE0001092E8040E947B0B60930B0570930C0518
:102BF00080930D0590930E052091070530910805EF
:102C0000621B730B709306056093050580E0CCC0D2
:102C10002FB7F8948091890290918A02A0918B023B
:102C2000B0918C022FBF20910F05820F911DA11D25
:102C3000B11D8093100590931105A0931205B093D8
:102C400013058091010590910205A0910305B091B3
:102C500004050196A11DB11D809301059093020505
:102C6000A0930305B093040510920B0510920C0578
:102C700010920D0510920E050E947B0B60930705C4
:102C8000709308058093090590930A05809191043B
:102C9000909192042FE0289F8001299F100D11240C
:102CA00085E10E94640B800F911F24E09695879523
:102CB0002A95E1F7909392048093910420919004D7
:102CC000222309F44BC060919404262F30E040E0A9
:102CD00050E029833A834B835C83C0909504D12CC8
:102CE000E12CF12C40919804509199044A01A12CB7
:102CF000B12C20919604309197042901612C712CFC
:102D00008217930728F09C014817590708F49A0185
:102D1000C901A0E0B0E09C01AD01241935094609C4
:102D2000570969817A818B819C816C197D098E0993
:102D30009F090E94DF23A501940124193509460942
:102D400057090E94B425C20ED31EE41EF51EC09280
:102D500093046C2D70E085E00E94050B0E9416170D
:102D60000E94131A81E020C0893209F066CC0E94CB
:102D7000FA1763CC115009F0DCCE60E070E085E01A
:102D80000E94050B83B7817F846083BF83B7816016
:102D900083BF83B7816083BF889583B78E7F83BFEE
:102DA00083B78E7F83BFC5CE0F900F900F900F908B
:102DB0000F90DF91CF911F910F91FF90EF90DF90D7
:102DC000CF90BF90AF909F908F907F906F905F90CB
:102DD0004F900895811112C01092CC041092CA0431
:102DE0001092D9041092D8041092CD0410928F043E
:102DF00010928E0410928D040C94240C089581116D
:102E000014C01092CC041092CA041092D9041092EB
:102E1000D8041092CD0410928F0410928E04109258
:102E20008D040E94240C1092B6040895CF92DF9274
:102E3000EF92FF920F931F93CF93DF93CAE9D4E0F1
:102E400001EA14E0FF24FA9497E0E92EE00E62E034
:102E500088810E94C90A288130E0F901EF50FC4EB8
:102E60008491F901E352FC4EC490F901E753FC4E02
:102E7000D490DD2071F081110E94700AED2DF0E0F8
:102E8000EE0FFF1FE154FC4EA591B491EC91EC21A3
:102E9000B1F4F80180818F5F808360E088810E94B7
:102EA000C90A21960F5F1F4FE012D1CFDF91CF915A
:102EB0001F910F91FF90EF90DF90CF900895F80150
:102EC0008081882371F3F8018F3F11F41082E5CFE0
:102ED000F082E3CFCF93C82FF89460E08091ED04A7
:102EE0000E94990A8091EE0418161CF460E00E947A
:102EF000990ACEBD00000DB407FEFDCF8EB58091BE
:102F0000EE0418161CF461E00E94990A7894CF919F
:102F100008950F931F93CF938091EA048F5F80935E
:102F2000EA040DE812E0C0E08C2F80640E946A176A
:102F300080E80E946A1761E08091ED040E94990A7E
:102F40008091EE0418161CF460E00E94990A80E05B
:102F500090E0F801E80FF91F20812EBD00000DB4AC
:102F600007FEFDCF2EB501968435910591F780912E
:102F7000EE0418161CF461E00E94990ACF5F0C5A07
:102F80001F4FC63089F680E4CF911F910F910C94AA
:102F90006A170F931F93CF93DF938C01C0E0D0E0AB
:102FA000F801EC0FFD1F6491662371F0E091DE04DF
:102FB000F091DF040190F081E02D8EED94E0099511
:102FC000892B11F02196ECCFCE01DF91CF911F918B
:102FD0000F910895CF93DF930E94C917EC016AE621
:102FE00072E08EED94E00E945B0A8C0F9D1FDF91D2
:102FF000CF91089588EF91E0EDE8F2E0DF019C01C8
:103000001D9221503040E1F71092E7041092E8043D
:1030100087E993E10E94C9170E9489178CB58360E4
:103020008CBD8DB58E7F8DBD8DE692E0EEEFFFE31A
:1030300009951092E40482E793E10E94EA170E9446
:1030400089170E9416178091A504813039F062E338
:1030500070E080E090E00E94A00BF3CF0895AF9263
:10306000BF92CF92DF92EF92FF920F931F93CF9375
:10307000DF93C82ED12CE601C057DB4F9DA19923C9
:1030800009F44CC07E019FEFE91AF90AF70195A1F6
:10309000911144C09EA58601000F111F00571B4FC0
:1030A000F80134A525A5E32FF22FE90FF11DE90F53
:1030B000F11D259134912F3FFFEF3F0711F41DA221
:1030C0002DC039ABF601EE0FFF1FE656FB4F33273D
:1030D000220F331F05A0F6A1E02DE20FF31FA590EC
:1030E000B490811117C00E94FF16F801B3AAA2AADA
:1030F000F601EE0FFF1FEE55FB4F16A215A281E061
:10310000F70185A389E08BAF1EAEFE017B9615A269
:10311000329615A229968DA18F5F8DA3DF91CF9155
:103120001F910F91FF90EF90DF90CF90BF90AF90E5
:10313000089570E0DB01AA0FBB1FA057BB4FD496C8
:103140002C91D497D5969C91D597E22FF92FE80F23
:10315000F11DE80FF11D259134915F9696963C93F1
:103160002E939597F901859194919091B904989F28
:10317000802D112460577B4FFB01B19685A3F90187
:10318000A591B4914B2F50E0E82FF0E04E175F0768
:1031900020F4F90125913491832FFB01B296899F88
:1031A000802D112485A30895AF92BF92CF92DF9214
:1031B000EF92FF920F931F93CF93DF93182F062F59
:1031C000C1E0D3E08AEFD82E9EEFE92E842F8470E1
:1031D000C82E842F8270B82E842F8870A82E41703C
:1031E000F42E8C2F880F8F5FE80ECC2081F04D2FAE
:1031F000400F6C2F610F8EED94E00E94BB0D4C2FA1
:10320000400F6D2F610F8EED94E00E94BB0DBB202F
:1032100081F0402F4D1B6C2F610F8EED94E00E94CA
:10322000BB0D402F4C1B6D2F610F8EED94E00E9463
:10323000BB0DAA2081F04C2F400F612F6D1B8EED2E
:1032400094E00E94BB0D4D2F400F612F6C1B8EED43
:1032500094E00E94BB0DFF2081F0402F4C1B612F9A
:103260006D1B8EED94E00E94BB0D402F4D1B612F16
:103270006C1B8EED94E00E94BB0DCD1744F4E7FC6F
:1032800004C0D150D394D394ED0CCF5FAACFDF917B
:10329000CF911F910F91FF90EF90DF90CF90BF9053
:1032A000AF9008950F931F93CF93DF93182F062F9E
:1032B000D42FC0E0CD174CF44C2F400F612F8EED72
:1032C00094E00E94BB0DCF5FF5CFDF91CF911F91AE
:1032D0000F9108959F92AF92BF92CF92DF92EF929B
:1032E000FF920F931F93CF93DF93F82EE62EB22E0B
:1032F00003E0020FD0E0C3E08AEFC82E1EEF842F58
:103300008170982EAA24A394A20E4270D42EDF5F5F
:10331000802F8B19180F992081F04C2F440F4A0DE4
:103320006E2D6C1B8D2F8F0D0E945219402F6E2D0C
:103330006D1B8C2F8F0D0E945219DD2081F04C2FB8
:10334000440F4A0D6E2D6C1B8F2D8D1B0E94521940
:10335000402F6E2D6D1B8F2D8C1B0E945219DC1778
:1033600044F417FD04C0C150C394C3941C0D0E5FF8
:10337000CECFDF91CF911F910F91FF90EF90DF9013
:10338000CF90BF90AF909F9008958F929F92AF92F1
:10339000BF920F931F93CF93DF93CDB7DEB7A19763
:1033A0000FB6F894DEBF0FBECDBF19A2423008F4AD
:1033B0004AE08E010F5D1F4F842E912CA12CB12C61
:1033C000A50194010E94E625E62FB901CA0101502A
:1033D0001109EA3014F4E05D01C0E95CD801EC9316
:1033E000232B242B252B61F7B8018EED94E00E944E
:1033F0005B0AA1960FB6F894DEBF0FBECDBFDF917A
:10340000CF911F910F91BF90AF909F908F90089593
:10341000E091DE04F091DF040190F081E02D682F4F
:103420008EED94E009948091AC049091AD04892BC9
:10343000B1F18091B4048F7169F584E10E94640B4D
:10344000BC01990F880B990B0E945A2426EE3FE38A
:103450004EEC50E40E94BE240E9429249B017093EC
:10346000AB046093AA04672B91F084E08093A904D5
:10347000ECEAF4E080E0419151912417350718F40B
:103480008093A90408958F5F8430A9F703C08FEF5C
:103490008093A9048091B4048F5F8093B40408954D
:1034A000CF92DF92EF92FF920F931F93CF93DF9310
:1034B000C82FD62F142F422F022E000C550B461B5F
:1034C000510967FD539557FF03C051954195510927
:1034D000812F012E000C990B8C1B9109C7FD939530
:1034E00097FF03C0919581959109DD24D3948417AA
:1034F000950714F0D12C06C0812F122F282F8C2F66
:10350000CD2FD82F1C1734F48D2FD22F282F8C2F8E
:10351000C12F182FE12EEC1A822F022E000C990BCE
:103520008D1B9109D7FD939597FF03C091958195C8
:103530009109F82E0E2DE7FE02C001E00E0D059553
:10354000D2171CF0CC24CA9411C0CC24C3940EC052
:10355000DD2079F04C2F6D2F8EED94E00E94BB0D95
:103560000F1907FF02C0DC0D0E0DCF5F1C1784F78B
:1035700003C04D2F6C2FF0CFDF91CF911F910F9192
:10358000FF90EF90DF90CF900895EF92FF920F930E
:103590001F93CF93DF93C82FD62F142FF22E0E94A4
:1035A000501A2E2D402F6F2D812F0E94501A2D2F33
:1035B0004C2F6E2D802FDF91CF911F910F91FF9097
:1035C000EF900C94501A2F923F924F925F926F920D
:1035D0007F928F929F92AF92BF92CF92DF92EF92A3
:1035E000FF920F931F93CF93DF93CDB7DEB7299749
:1035F0000FB6F894DEBF0FBECDBF282E6987F42E1C
:10360000322E261754F4E6160CF0E3C03E2CE62EBC
:103610002987F02E022D242E08C0E21674F4832D83
:103620003E2CE82E8F2DF02E082F398533162CF4E2
:103630003986332E822D2F2CF82E39853E112FC03E
:10364000F21434F0822D2F140CF48F2DF22C282E2E
:103650000F1524F020160CF4202E0F2D21E0220D42
:10366000201B4985602F8EED94E029960FB6F894C3
:10367000DEBF0FBECDBFDF91CF911F910F91FF90A5
:10368000EF90DF90CF90BF90AF909F908F907F9002
:103690006F905F904F903F902F900C94130E822D5F
:1036A000022C000C990B2F2D0F2C000C330BA901B1
:1036B000481B590B5C834B83832C032C000C99080B
:1036C0005985A52E550FBB08F401EA19FB09FE83A5
:1036D000ED83002E000C110B6801C81AD90A8E2D3B
:1036E0000E2C000C990BAC014A195B095A834983D3
:1036F000021B130BFC01E819F909F887EF833E1050
:103700003A94412C512C612C712C398533162CF1B3
:10371000C3016D817E810E94FB23322D360FC201D1
:1037200069817A810E94FB23222D260F4B815C81C7
:10373000640E751E4C0C5D1C23171CF4832F322F56
:10374000282F2F5F231B4985632F8EED94E00E9465
:10375000130E39853F5F3987D8CF832F330F990BED
:103760009C0128193909029F4001039F900C129F68
:10377000900C11248A199B09C89E5001C99EB00C57
:10378000D89EB00C11243985E31644F1C4016F8131
:1037900078850E94FB233F2D360FC50169817A8110
:1037A0000E94FB23222D260F800E911EAC0CBD1C07
:1037B00023171CF4832F322F282F2F5F231B4985BB
:1037C000632F8EED94E00E94130E39853F5F398799
:1037D000DACF39842987F22C242E2FCF29960FB6E1
:1037E000F894DEBF0FBECDBFDF91CF911F910F9137
:1037F000FF90EF90DF90CF90BF90AF909F908F9011
:103800007F906F905F904F903F902F900895CF934F
:10381000DF93BC018EED94E00E945B0AEC016AE646
:1038200072E08EED94E00E945B0A8C0F9D1FDF9189
:10383000CF910895CF93DF9300D000D0CDB7DEB7FE
:1038400016161706180619067CF49B01AC0169834D
:103850003A834B835C830E94A62529813A814B8160
:103860005C810E94B42503C060E070E0CB010F9042
:103870000F900F900F90DF91CF910895789484B5B9
:10388000826084BD84B5816084BD85B5826085BD5C
:1038900085B5816085BD80916E00816080936E00EA
:1038A00010928100809181008260809381008091DC
:1038B000810081608093810080918000816080938D
:1038C00080008091B10084608093B1008091B0004D
:1038D00081608093B00080917A00846080937A0048
:1038E00080917A00826080937A0080917A00816072
:1038F00080937A0080917A00806880937A00109299
:10390000C1000E942C0F85E0282E312CC8E4D0E0A5
:103910000E948412882309F44BC68091A704813049
:1039200009F44EC640907E0250907F02F201EE0FE5
:10393000FF1FE35FFE4F2081318149E160E08EEDA2
:1039400094E00E94790C60907C0270907D02F301FB
:10395000EE0FFF1FE35FFE4F2081318149E161E1FE
:103960008EED94E00E94790C80907A0290907B0218
:10397000F401EE0FFF1FE35FFE4F2081318149E12B
:1039800062E28EED94E00E94790CA0907802B090F3
:103990007902F501EE0FFF1FE35FFE4F20813181B9
:1039A00049E163E38EED94E00E94790CC0907602C9
:1039B000D0907702F601EE0FFF1FE35FFE4F2081EC
:1039C000318149E164E48EED94E00E94790C8091AC
:1039D000A1048F3F71F48091000190910101019742
:1039E0001816190614F081E090E09093010180937D
:1039F00000018091A3048F3F69F4809100019091B0
:103A000001010196863091050CF4DDC5309201016B
:103A10002092000180910001909101018330910575
:103A200009F44BC034F48130910559F0029739F113
:103A30009BC08430910509F45DC0059709F477C0F7
:103A400093C057E1E52E0BE023E147E067E183E017
:103A50000E94C51A6AE2E62E2EE247E06AE283E09F
:103A60000E94C51A8091A20481508E3F08F4B0C50F
:103A70008091A40481508E3F08F076C0BAC537E12A
:103A8000E32E0CE123E148E167E184E10E94C51ADD
:103A90004AE2E42E2EE248E16AE284E10E94C51A7D
:103AA0008091A20481508E3F08F4B6C58091A40491
:103AB00081508E3F08F058C0C0C597E1E92E0DE255
:103AC00023E149E267E185E20E94C51A2AE2E22E7B
:103AD0002EE249E26AE285E20E94C51A8091A204C0
:103AE00081508E3F08F4BCC58091A40481508E3F64
:103AF000D8F5C7C517E1E12E0EE323E14AE367E1FC
:103B000086E30E94C51A8AE2E82E2EE24AE36AE2C0
:103B100086E30E94C51A8091A20481508E3F08F46A
:103B2000C3C58091A40481508E3FF0F4CEC5A7E1B7
:103B3000EA2E0FE423E14BE467E187E40E94C51A13
:103B4000BAE2EB2E2EE24BE46AE287E40E94C51A49
:103B50008091A20481508E3F08F4CAC58091A404CC
:103B600081508E3F08F4D5C51092E7041092E80406
:103B7000E0917E02F0917F02E834F10508F0DDC0AB
:103B8000EC5CFF4F0C940F248AEC91E0D4C085EAE2
:103B900091E0D1C088EA91E0CEC08BEA91E0CBC041
:103BA0008EEA91E0C8C081EB91E0C5C084EB91E062
:103BB000C2C087EB91E0BFC08AEB91E0BCC08DEB47
:103BC00091E0B9C080EC91E0B6C083EC91E0B3C065
:103BD00086EC91E0B0C089EC91E0ADC08CEC91E056
:103BE000AAC08DEE91E0A7C08FEC91E0A4C082ED59
:103BF00091E0A1C086ED91E09EC08AED91E09BC06E
:103C000087ED91E098C08DED91E095C080EE91E058
:103C100092C083EE91E08FC086EE91E08CC089EE79
:103C200091E089C08CEE91E086C08FEE91E083C078
:103C30008FE092E080C082EF91E07DC086EF91E05E
:103C40007AC085EF91E077C089EF91E074C08CEF86
:103C500091E071C08FEF91E06EC082E092E06BC0A6
:103C600085E092E068C088E092E065C08BE092E079
:103C700062C08EE092E05FC081E192E05CC084E1CE
:103C800092E059C089E392E056C087E192E053C0C8
:103C90008AE192E050C08DE192E04DC080E292E076
:103CA0004AC083E292E047C086E292E044C089E2E3
:103CB00092E041C08CE292E03EC08FE292E03BC0D5
:103CC00082E392E038C085E392E035C088E392E079
:103CD00032C08BE392E02FC080E692E02CC08EE3EE
:103CE00092E029C081E492E026C084E492E023C0FF
:103CF00087E492E020C08AE492E01DC08DE492E067
:103D00001AC080E592E017C083E592E014C086E512
:103D100092E011C089E592E00EC08CE592E00BC004
:103D20008FE592E008C082E692E005C085E692E069
:103D300002C088E692E00E94071C81E18093E704BC
:103D40001092E804E0917C02F0917D02E834F105E4
:103D500008F0DDC0E458FF4F0C940F248AEC91E08A
:103D6000D4C085EA91E0D1C088EA91E0CEC08BEA68
:103D700091E0CBC08EEA91E0C8C081EB91E0C5C074
:103D800084EB91E0C2C087EB91E0BFC08AEB91E089
:103D9000BCC08DEB91E0B9C080EC91E0B6C083EC83
:103DA00091E0B3C086EC91E0B0C089EC91E0ADC089
:103DB0008CEC91E0AAC08DEE91E0A7C08FEC91E071
:103DC000A4C082ED91E0A1C086ED91E09EC08AED95
:103DD00091E09BC087ED91E098C08DED91E095C09A
:103DE00080EE91E092C083EE91E08FC086EE91E08C
:103DF0008CC089EE91E089C08CEE91E086C08FEE98
:103E000091E083C08FE092E080C082EF91E07DC0BE
:103E100086EF91E07AC085EF91E077C089EF91E07D
:103E200074C08CEF91E071C08FEF91E06EC082E0C2
:103E300092E06BC085E092E068C088E092E065C0E7
:103E40008BE092E062C08EE092E05FC081E192E0A0
:103E50005CC084E192E059C089E392E056C087E1FA
:103E600092E053C08AE192E050C08DE192E04DC0F3
:103E700080E292E04AC083E292E047C086E292E0AC
:103E800044C089E292E041C08CE292E03EC08FE201
:103E900092E03BC082E392E038C085E392E035C017
:103EA00088E392E032C08BE392E02FC080E692E09C
:103EB0002CC08EE392E029C081E492E026C084E425
:103EC00092E023C087E492E020C08AE492E01DC023
:103ED0008DE492E01AC080E592E017C083E592E09D
:103EE00014C086E592E011C089E592E00EC08CE531
:103EF00092E00BC08FE592E008C082E692E005C038
:103F000085E692E002C088E692E00E94071C82E209
:103F10008093E7041092E804E0917A02F0917B022A
:103F2000E834F10508F0DDC0EC53FF4F0C940F248A
:103F30008AEC91E0D4C085EA91E0D1C088EA91E0B2
:103F4000CEC08BEA91E0CBC08EEA91E0C8C081EB95
:103F500091E0C5C084EB91E0C2C087EB91E0BFC0A7
:103F60008AEB91E0BCC08DEB91E0B9C080EC91E0B0
:103F7000B6C083EC91E0B3C086EC91E0B0C089ECB0
:103F800091E0ADC08CEC91E0AAC08DEE91E0A7C0AD
:103F90008FEC91E0A4C082ED91E0A1C086ED91E0AC
:103FA0009EC08AED91E09BC087ED91E098C08DEDB9
:103FB00091E095C080EE91E092C083EE91E08FC0D9
:103FC00086EE91E08CC089EE91E089C08CEE91E0A4
:103FD00086C08FEE91E083C08FE092E080C082EFD8
:103FE00091E07DC086EF91E07AC085EF91E077C0E7
:103FF00089EF91E074C08CEF91E071C08FEF91E098
:104000006EC082E092E06BC085E092E068C088E01C
:1040100092E065C08BE092E062C08EE092E05FC00B
:1040200081E192E05CC084E192E059C089E392E0D2
:1040300056C087E192E053C08AE192E050C08DE122
:1040400092E04DC080E292E04AC083E292E047C035
:1040500086E292E044C089E292E041C08CE292E0C4
:104060003EC08FE292E03BC082E392E038C085E33D
:1040700092E035C088E392E032C08BE392E02FC03B
:1040800080E692E02CC08EE392E029C081E492E0C9
:1040900026C084E492E023C087E492E020C08AE452
:1040A00092E01DC08DE492E01AC080E592E017C056
:1040B00083E592E014C086E592E011C089E592E0C4
:1040C0000EC08CE592E00BC08FE592E008C082E65E
:1040D00092E005C085E692E002C088E692E00E9488
:1040E000071C83E38093E7041092E804E0917802D0
:1040F000F0917902E834F10508F0DDC0E45FFE4F8D
:104100000C940F248AEC91E0D4C085EA91E0D1C0F0
:1041100088EA91E0CEC08BEA91E0CBC08EEA91E0D4
:10412000C8C081EB91E0C5C084EB91E0C2C087EBD1
:1041300091E0BFC08AEB91E0BCC08DEB91E0B9C0CB
:1041400080EC91E0B6C083EC91E0B3C086EC91E0E6
:10415000B0C089EC91E0ADC08CEC91E0AAC08DEECE
:1041600091E0A7C08FEC91E0A4C082ED91E0A1C0E6
:1041700086ED91E09EC08AED91E09BC087ED91E0D5
:1041800098C08DED91E095C080EE91E092C083EEF5
:1041900091E08FC086EE91E08CC089EE91E089C0FD
:1041A0008CEE91E086C08FEE91E083C08FE092E0CC
:1041B00080C082EF91E07DC086EF91E07AC085EF0C
:1041C00091E077C089EF91E074C08CEF91E071C00D
:1041D0008FEF91E06EC082E092E06BC085E092E0EC
:1041E00068C088E092E065C08BE092E062C08EE03B
:1041F00092E05FC081E192E05CC084E192E059C04E
:1042000089E392E056C087E192E053C08AE192E0F0
:1042100050C08DE192E04DC080E292E04AC083E25E
:1042200092E047C086E292E044C089E292E041C059
:104230008CE292E03EC08FE292E03BC082E392E0EB
:1042400038C085E392E035C088E392E032C08BE36A
:1042500092E02FC080E692E02CC08EE392E029C06D
:1042600081E492E026C084E492E023C087E492E0F7
:1042700020C08AE492E01DC08DE492E01AC080E57F
:1042800092E017C083E592E014C086E592E011C089
:1042900089E592E00EC08CE592E00BC08FE592E0DC
:1042A00008C082E692E005C085E692E002C088E69A
:1042B00092E00E94071C84E48093E7041092E804D3
:1042C000E0917602F0917702E834F10508F0DDC064
:1042D000EC5AFE4F0C940F248AEC91E0D4C085EA8E
:1042E00091E0D1C088EA91E0CEC08BEA91E0CBC0EA
:1042F0008EEA91E0C8C081EB91E0C5C084EB91E00B
:10430000C2C087EB91E0BFC08AEB91E0BCC08DEBEF
:1043100091E0B9C080EC91E0B6C083EC91E0B3C00D
:1043200086EC91E0B0C089EC91E0ADC08CEC91E0FE
:10433000AAC08DEE91E0A7C08FEC91E0A4C082ED01
:1043400091E0A1C086ED91E09EC08AED91E09BC016
:1043500087ED91E098C08DED91E095C080EE91E001
:1043600092C083EE91E08FC086EE91E08CC089EE22
:1043700091E089C08CEE91E086C08FEE91E083C021
:104380008FE092E080C082EF91E07DC086EF91E007
:104390007AC085EF91E077C089EF91E074C08CEF2F
:1043A00091E071C08FEF91E06EC082E092E06BC04F
:1043B00085E092E068C088E092E065C08BE092E022
:1043C00062C08EE092E05FC081E192E05CC084E177
:1043D00092E059C089E392E056C087E192E053C071
:1043E0008AE192E050C08DE192E04DC080E292E01F
:1043F0004AC083E292E047C086E292E044C089E28C
:1044000092E041C08CE292E03EC08FE292E03BC07D
:1044100082E392E038C085E392E035C088E392E021
:1044200032C08BE392E02FC080E692E02CC08EE396
:1044300092E029C081E492E026C084E492E023C0A7
:1044400087E492E020C08AE492E01DC08DE492E00F
:104450001AC080E592E017C083E592E014C086E5BB
:1044600092E011C089E592E00EC08CE592E00BC0AD
:104470008FE592E008C082E692E005C085E692E012
:1044800002C088E692E00E94071C80917E02909113
:104490007F028934910524F010927F0210927E02EF
:1044A00080917C0290917D028934910524F01092D4
:1044B0007D0210927C0280917A0290917B02893475
:1044C000910524F010927B0210927A02809178027A
:1044D000909179028934910524F01092790210921A
:1044E000780280917602909177028934910524F0C8
:1044F000109277021092760280917E0290917F0254
:1045000097FF04C0D0937F02C0937E0280917C020B
:1045100090917D0297FF04C0D0937D02C0937C02EE
:1045200080917A0290917B0297FF04C0D0937B0226
:10453000C0937A02809178029091790297FF04C02B
:10454000D0937902C093780280917602909177029D
:1045500097FF04C0D0937702C09376028091A504A0
:104560008F3F09F4E9C0C0907402D090750291E0C9
:10457000C916D10429F08091A6048F3FC9F40CC05C
:1045800010E028E5412F60E08EED94E00E94130ECC
:104590001F5F1730B1F7EFCF8FEFC81AD80A92E03C
:1045A000C916D1040CF4FBC010927502109274026B
:1045B00080E090E0892B09F4ABC90E940000A8C9F3
:1045C0000E942C0FAFC9909301018093000122CA71
:1045D000F7E1EF2E0BE023E147E067E183E00E9483
:1045E000E31A9FEF491A590A50927F0240927E02C5
:1045F0003FCAEAE2EE2E0BE02EE247E06AE283E0F9
:104600000E94E31A80917E0290917F02019790931D
:104610007F0280937E02A8CA77E1E72E0CE123E1B6
:1046200048E167E184E10E94E31A8FEF681A780A93
:1046300070927D0260927C0239CA6AE2E62E0CE139
:104640002EE248E16AE284E10E94E31A80917C0252
:1046500090917D02019790937D0280937C0284CAA1
:1046600057E1E52E0DE223E149E267E185E20E9490
:10467000E31A9FEF891A990A90927B0280927A023C
:1046800033CA4AE2E42E0DE22EE249E26AE285E212
:104690000E94E31A80917A0290917B020197909395
:1046A0007B0280937A0260CA37E1E32E0EE323E1B6
:1046B0004AE367E186E30E94E31A8FEFA81AB80A7B
:1046C000B0927902A09278022CCA2AE2E22E0EE37E
:1046D0002EE24AE36AE286E30E94E31A80917802BE
:1046E00090917902019790937902809378023CCA65
:1046F00097E1E92E0FE423E14BE467E187E40E94B0
:10470000E31A9FEFC91AD90AD0927702C0927602B3
:1047100025CA8AE2E82E0FE42EE24BE46AE287E43F
:104720000E94E31A8091760290917702019790930C
:1047300077028093760218CA68E470E080E090E027
:104740000E941A1C70937F0260937E0268E470E0FE
:1047500080E090E00E941A1C70937D0260937C02BE
:1047600068E470E080E090E00E941A1C70937B0285
:1047700060937A0268E470E080E090E00E941A1C86
:10478000709379026093780268E470E080E090E0D2
:104790000E941A1C7093770260937602E4CED09246
:1047A0007502C092740204CF1092E1041092E004EA
:1047B00081EA91E09093DF048093DE040895DB01A9
:1047C0008F939F930E94D325BF91AF91A29F800D9D
:1047D000911DA39F900DB29F900D11240895991BD8
:1047E00079E004C0991F961708F0961B881F7A95E8
:1047F000C9F78095089597FB072E16F4009407D00B
:1048000077FD09D00E94152407FC05D03EF4909551
:1048100081959F4F0895709561957F4F0895EE0F94
:10482000FF1F0590F491E02D0994AA1BBB1B51E1D9
:1048300007C0AA1FBB1FA617B70710F0A61BB70B10
:10484000881F991F5A95A9F780959095BC01CD01B5
:1048500008950E949D2488F09F5798F0B92F9927BA
:10486000B751B0F0E1F0660F771F881F991F1AF05B
:10487000BA95C9F714C0B13091F00E94B724B1E0E5
:1048800008950C94B724672F782F8827B85F39F0E4
:10489000B93FCCF3869577956795B395D9F73EF4F4
:1048A00090958095709561957F4F8F4F9F4F08959C
:1048B000E89409C097FB3EF49095809570956195BA
:1048C0007F4F8F4F9F4F9923A9F0F92F96E9BB2770
:1048D0009395F695879577956795B795F111F8CFEC
:1048E000FAF4BB0F11F460FF1BC06F5F7F4F8F4F57
:1048F0009F4F16C0882311F096E911C0772321F04D
:104900009EE8872F762F05C0662371F096E8862FE4
:1049100070E060E02AF09A95660F771F881FDAF73B
:10492000880F9695879597F9089557FD9058440FED
:10493000551F59F05F3F71F04795880F97FB991FFE
:1049400061F09F3F79F087950895121613061406BB
:10495000551FF2CF4695F1DF08C016161706180648
:10496000991FF1CF86957105610508940895E89423
:10497000BB2766277727CB0197F908950E94D1249A
:104980000C9442250E94342538F00E943B2520F0EB
:10499000952311F00C942B250C94312511240C94A3
:1049A000B8240E94952470F3959FC1F3950F50E0B1
:1049B000551F629FF001729FBB27F00DB11D639FD1
:1049C000AA27F00DB11DAA1F649F6627B00DA11D77
:1049D000661F829F2227B00DA11D621F739FB00D1D
:1049E000A11D621F839FA00D611D221F749F33278D
:1049F000A00D611D231F849F600D211D822F762F26
:104A00006A2F11249F5750409AF0F1F088234AF002
:104A1000EE0FFF1FBB1F661F771F881F915050406E
:104A2000A9F79E3F510580F00C942B250C94B824D7
:104A30005F3FE4F3983ED4F3869577956795B795F5
:104A4000F795E7959F5FC1F7FE2B880F911D96950F
:104A5000879597F9089597F99F6780E870E060E07F
:104A600008959FEF80EC089500240A941616170607
:104A700018060906089500240A941216130614064F
:104A800005060895092E0394000C11F4882352F0B2
:104A9000BB0F40F4BF2B11F460FF04C06F5F7F4F6A
:104AA0008F4F9F4F089581E090E0F8940C94172663
:104AB0008F929F92AF92BF92CF92DF92EF92FF922E
:104AC000CF93DF93EC01688179818A819B816115A5
:104AD00071058105910521F464E279ED8BE597E09C
:104AE0002DE133EF41E050E00E94B42549015A0125
:104AF0009B01AC01A7EAB1E40E94D3256B017C01C4
:104B0000ACEEB4EFA50194010E94E125DC01CB01DC
:104B10008C0D9D1DAE1DBF1DB7FF03C00197A109E0
:104B2000B04888839983AA83BB83BC01CD019F775A
:104B3000DF91CF91FF90EF90DF90CF90BF90AF903B
:104B40009F908F9008950E945825089589E091E0E4
:104B50000E94582508956093090170930A0180937B
:104B60000B0190930C010895052E97FB1EF4009401
:104B70000E94CB2557FD07D00E94E62507FC03D0F5
:104B80004EF40C94CB2550954095309521953F4F90
:104B90004F4F5F4F089590958095709561957F4F29
:104BA0008F4F9F4F08950E940826A59F900DB49F98
:104BB000900DA49F800D911D11240895B7FF0C94B2
:104BC000D3250E94D325821B930B0895A1E21A2EB0
:104BD000AA1BBB1BFD010DC0AA1FBB1FEE1FFF1FA1
:104BE000A217B307E407F50720F0A21BB30BE40BF1
:104BF000F50B661F771F881F991F1A9469F7609538
:104C00007095809590959B01AC01BD01CF010895F1
:104C1000A29FB001B39FC001A39F700D811D1124FD
:104C2000911DB29F700D811D1124911D0895F8945E
:024C3000FFCFB4
:104C320001000100001705800001000000DF0CBD2B
:104C42000C9B0C790C570C350C130CF10BCF0BADE4
:104C52000B8B0B690B470B250B030BE10ABF0A9D5C
:104C62000A7B0A590A370A150AF309D109AF098DD5
:104C720009520930090E09EC08CA08A80886086416
:104C82000842082008FE07DC07BA0798077607548F
:104C92000732071007EE06CC06AA06880666064407
:104CA2000622060006DE05BC059A0578055605347F
:104CB200051205F004CE04AC048A046804460424F8
:104CC200040204E003AE038C035A0338030000001D
:104CD20000360E2E0A4B41005341005441004E4112
:104CE200004841004D4100594100524100574100E6
:104CF2004741005A41004441004241005041004BAB
:104D0200490053484900434849004E49004D490073
:104D12005249005749004749004A49004249005058
:104D220049004B5500545355004E55004655004D11
:104D320055005955005255004755005A55004255E5
:104D4200005055005655004B450053450054450050
:104D52004E45004845004D45005245005745004725
:104D620045005A45004445004245005045004B4F1E
:104D720000534F00544F004E4F00484F004D4F001C
:104D8200594F00524F00574F00474F005A4F0042B1
:104D92004F00444F00504F004E000D0A004C4F414F
:044DA2004445520032
:00000001FF
